:10000000B5C00000D0C00000CEC00000CCC00000D1
:10001000CAC00000C8C00000C6C00000C4C00000C4
:10002000C2C00000C0C000000C9407090C94200955
:10003000BAC000000C94230AB6C00000B4C000008F
:10004000B2C00000B0C00000AEC00000ACC00000F4
:10005000AAC00000A8C00000A6C00000A4C0000004
:10006000B5C50000A0C000009EC000009CC00000FC
:100070009AC0000098C0000096C0000094C0000024
:1000800092C0000090C000008EC000008CC0000034
:100090008AC0000088C0000086C0000084C0000044
:1000A00082C0000080C000007EC000007CC0000054
:1000B0007AC0000078C000000C94460A74C00000AA
:1000C00072C0000070C000006EC000006CC0000074
:1000D0006AC0000068C0000066C0000064C0000084
:1000E00062C0000060C000005EC000005CC0000094
:1000F0005AC0000058C0000056C0000054C00000A4
:1001000052C0000050C000004EC000004CC00000B3
:100110004AC0000048C0000046C00000D1C6000030
:1001200042C0000040C000003EC000003CC00000D3
:100130003AC0000038C0000036C0000034C00000E3
:1001400032C0000030C000002EC000002CC00000F3
:100150002AC0000028C0000026C0000024C0000003
:1001600022C0000020C000001EC0000011241FBEDD
:10017000CFEFCDBFD7E2DEBF13E2A0E0B0E2EEEBFF
:10018000F3E202C005900D92A431B107D9F723E242
:10019000A4E1B3E201C01D92A835B207E1F70E94C5
:1001A000E20B0C94DD112CCFCF93DF9300D0CDB7B1
:1001B000DEB7EDD289839A8342E0BE016F5F7F4F45
:1001C00080E721D40F900F90DF91CF910895CF93C6
:1001D000DF9300D0CDB7DEB7B5D389839A8342E0F1
:1001E000BE016F5F7F4F82E70ED40F900F90DF91BB
:1001F000CF910895CF93DF931F92CDB7DEB783E001
:10020000898341E0BE016F5F7F4F8DE7FCD30F9084
:10021000DF91CF910895CF93DF9300D0CDB7DEB7B4
:1002200042E0BE016F5F7F4F87E74BD489819A819F
:100230000F900F90DF91CF910895CF93DF9300D06F
:10024000CDB7DEB7E8DF89839A8342E0BE016F5FF6
:100250007F4F87E7D8D30F900F90DF91CF9108950C
:10026000CF92DF92EF92FF920F931F93CF93DF9382
:10027000CDB7DEB72697CDBFDEBF41E0BE016A5FD6
:100280007F4F84E71ED48E81803211F484E640C013
:10029000803111F41D8262C0809106208823D1F143
:1002A00042E0BE016D5F7F4F80E70BD442E0BE01AC
:1002B0006F5F7F4F8AE005D429813A81F901ED57BC
:1002C000F109E983FA832B813C81E217F307B8F146
:1002D0002C3A8DE03807B8F0C901A0E0B0E09C01ED
:1002E000AD012C5A3D4041095109A4E6B0E00E94FD
:1002F000110D8F0120E030E0A90198012C5A3D40FA
:100300004109510927C01D828D81843638F183E669
:100310008D8324C0209122233091232340912423D4
:1003200050912523C0901E23D0901F23E0902023BE
:10033000F0902123C216D306E406F5061CF483E6EA
:100340008D83E2CF57FDDFCFA4E6B0E00E94110D10
:10035000A70196010E94E00C2D83D6CF41E0BE019B
:100360006B5F7F4F86E74FD32696CDBFDEBFDF9111
:10037000CF911F910F91FF90EF90DF90CF90089554
:10038000AF92BF92CF92DF92EF92FF920F931F93A3
:10039000CF93DF93CDB7DEB72C97CDBFDEBF42E062
:1003A000BE01655F7F4F84E78CD342E0BE016B5F87
:1003B0007F4F82E786D342E0BE01675F7F4F82E1D5
:1003C00080D342E0BE01695F7F4F87E77AD342E086
:1003D000BE016D5F7F4F8AE074D3AB80BC8042E08A
:1003E000BE016F5F7F4F82E16CD309811A8142E0C9
:1003F000BE016D5F7F4F80E764D342E0BE016F5F57
:100400007F4F82E75ED3CB80DC80E12CF12C95011D
:10041000AFE5B0E00E94FC0C24E630E040E050E0A4
:100420000E94E00C2C153D054E055F0544F5C98082
:10043000DA80D7FE03C0D194C194D1080D2C000CF2
:10044000EE08FF08B801110F880B990B22E330E08A
:1004500040E050E00E94E00CC216D306E406F50628
:1004600074F48091142390911523893522E092072A
:100470005CF4019680931423909315232CC0109262
:1004800014231092152327C080E290E089839A8379
:1004900029853A85A6E4B0E00E94FC0C24E630E011
:1004A00040E050E00E94E00CA0E1BEE00E94110D8F
:1004B00060931E2370931F23809320239093212306
:1004C00060932223709323238093242390932523E6
:1004D0001092062061C042E0BE016F5F7F4F80E74F
:1004E000F0D289819A818C3A9D4028F480E190E095
:1004F00089839A8325C02D813E81A901032E000C9A
:10050000660B770B8091222390912323A0912423C3
:10051000B091252312161306E4F420E430E0298379
:100520003A83841B950BA60BB70BB7FD09C08093CC
:10053000222390932323A0932423B09325232CC01C
:100540001092222310922323109224231092252309
:1005500023C019821A82841B950BA60BB70B8093BC
:10056000222390932323A0932423B0932523409107
:100570001E2350911F23609120237091212348173F
:1005800059076A077B0744F440932223509323239F
:1005900060932423709325232B853C8589819A8140
:1005A0002817390709F445C042E0BE016F5F7F4F4D
:1005B00084E729D28B859C858032910539F4898125
:1005C0009A8180349105A9F5F7D533C0803491051F
:1005D00071F489819A81409761F5B9D560931A23A6
:1005E00070931B2380931C2390931D2322C0803182
:1005F000910529F489819A81892BD9F4E5CF892B3A
:10060000C1F489819A818097A1F4A1D560931623C2
:100610007093172380931823909319238F819885C3
:1006200001968F83988742E0BE01695F7F4F87E71D
:10063000EAD12C96CDBFDEBFDF91CF911F910F91F4
:10064000FF90EF90DF90CF90BF90AF900895CF9341
:10065000DF9300D0CDB7DEB719821A82A5DDB7DDF2
:100660008FDEFEDDEADDC6DD29813A8180E090E0A3
:10067000FC01E757FF4D4081240F311D01968E3755
:100680009105B1F729833A838A8180930721898173
:10069000809308210F900F90DF91CF910895CF9311
:1006A000DF93CDB7DEB72697CDBFDEBFBE016F5F4C
:1006B0007F4F80E092E075D489819A819F789A83F8
:1006C00096E09C83817E806189831B82BE016F5F7F
:1006D0007F4F80E092E022D42696CDBFDEBFDF912F
:1006E000CF9108951F93CF93DF9300D000D0CDB763
:1006F000DEB7182FAE014F5F5F4F61E080E092E000
:100700008ED4103138F0198280EF810F880F880F56
:10071000880F06C083E1898328E0129FC00111245D
:100720008A838B81807F8B83AE014F5F5F4F61E057
:1007300080E092E057D42496CDBFDEBFDF91CF9109
:100740001F910895CF93DF931F92CDB7DEB78FB778
:100750008983F894298180912402909125022FBFEA
:100760000F90DF91CF910895CF93DF931F92CDB774
:10077000DEB78FB78983F8949981E0E0F2E0808159
:10078000846080839FBF0F90DF91CF910895FF9287
:100790000F931F93CF93DF93CDB7DEB72B97CDBFCA
:1007A000DEBFBE016F5F7F4F80E092E0FAD38981A8
:1007B0009A819F789A8396E09C83817E89831B82AD
:1007C000BE016F5F7F4F80E092E0A8D3AE01495F2A
:1007D0005F4F61E080E092E022D481E08F8380E18E
:1007E00088878985807F8987AE01495F5F4F61E097
:1007F00080E092E0F7D380E092E01DD389E1F82E0B
:1008000000E010E0B1DF80910602982F917080FF28
:10081000FACF909306028FB78B87F8942B8580913F
:100820002402909125022FBF080F191FFA94F1108E
:10083000E9CFC80169E170E00E94970C8B0180E06C
:1008400092E015D39801A6E6BCE00E94FC0C28EECD
:1008500033E040E050E00E94BE0CC9012B96CDBFB2
:10086000DEBFDF91CF911F910F91FF900895CF933D
:1008700084E0809325062FEF87EA91E6215080409F
:100880009040E1F700C000000ADF80E02BDF80E04D
:1008900092E0D1D2E0910720F091082010821182DD
:1008A000C9E162DF80910602982F917080FFFACF34
:1008B0009093060247DFE0910720F0910820208105
:1008C0003181820F931F80839183C15051F7E09152
:1008D0000720F09108208081918169E170E00E94F9
:1008E000AB0C6083718381E0FDDEE0910720F09125
:1008F000082012821382C9E137DF80910602982F07
:10090000917080FFFACF909306021CDFE0910720E0
:10091000F091082022813381820F931F8283938379
:10092000C15051F78281938169E170E00E94AB0C64
:100930006283738380E092E09AD284E080932606FB
:10094000CF910895FF920F931F93CF93DF93A7DE6C
:1009500080E0C8DE80E092E06ED219E1C0E0D0E035
:1009600003DF80910602982F917080FFFACF909359
:100970000602E8DEC80FD91F115091F7CE0169E1D8
:1009800070E0E9D7E0910720F09108208081918103
:10099000EB01C81BD90B81E0A5DE89E1F82E00E050
:1009A00010E0E2DE80910602982F917080FFFACF6E
:1009B00090930602C7DE080F191FFA94F110F1CFC9
:1009C000C80169E170E0C7D7E0910720F0910820E5
:1009D000828193818B01081B190B80E092E047D242
:1009E000DE01A01BB10B2EEC31E00E940B0D28EEB6
:1009F00033E040E050E0E4D7C901DF91CF911F918F
:100A00000F91FF9008956F927F928F929F92AF9275
:100A1000BF92CF92DF92FF920F931F93CF93DF93FA
:100A20001F92CDB7DEB7182FF42EF80E082F3B011A
:100A300089E0A82E81E2B82EC12ED12CC61AD70A81
:100A40000F1579F1103700F5802E912CC4010FD3CA
:100A5000F30160818617D1F0C40142D3C40107D3EA
:100A6000682FF3018081681789F01F928F931F927E
:100A70006F931F921F93BF92AF9269830E94AC0D38
:100A8000CDBFDEBF698102C0F3016081F601E60DD2
:100A9000F71DE757FF4D6083FFEF6F1A7F0A0F5F67
:100AA000CFCF80E00F90DF91CF911F910F91FF90FA
:100AB000DF90CF90BF90AF909F908F907F906F907E
:100AC0000895282FCB0150E030E0B90167577F4DE2
:100AD000B2C71F93CF93DF931F92CDB7DEB78FEFCF
:100AE00089838CE591E29F938F930E94AC0D0F90C8
:100AF0000F9010E041E0BE016F5F7F4F812F83DFD9
:100B00001F5F1038B9F788E791E20E94BF0D0F9080
:100B1000DF91CF911F9108950F931F93CF93DF9390
:100B20001F92CDB7DEB78EE791E29F938F930E941D
:100B3000AC0D0F900F9000E010E00038110571F03F
:100B4000F801E75FFF4D8081898341E0BE016F5F5F
:100B50007F4F802F58DF0F5F1F4FEFCF88E791E265
:100B60000E94BF0D0F90DF91CF911F910F910895BB
:100B7000EF92FF920F931F93CF93DF938EE991E251
:100B8000FED789E8E82E80E2F82EC0E0D0E00BEA3C
:100B900011E2F70181917F011F928F93DF93CF9331
:100BA0001F930F93D9D721960F900F900F900F900E
:100BB0000F900F90C038D10561F782E193E2DF9189
:100BC000CF911F910F91FF90EF90D9C71F920F9275
:100BD0000FB60F9211248F93EF93FF938091C30868
:100BE000809337238091372387FF02C08FEF06C0A1
:100BF000E0913723F0E0E757FF4D80818093C308F1
:100C0000FF91EF918F910F900FBE0F901F9018954D
:100C100068E083E071D080E48093C00883E0809333
:100C2000C1088091C20887FF03C08091C308F9CF33
:100C30008FEF8093C308089588E0809340068093E7
:100C40004506E0E2F6E094E0918396838183858314
:100C5000E0E8F6E0918396838183858340E050E06D
:100C600060E180E496E070D040E050E060E280E433
:100C700096E06AD043E050E060E480E496E064D01F
:100C800040E050E060E880E496E05EC0CF93DF9300
:100C90001F92CDB7DEB78FB78983F89489810F9003
:100CA000DF91CF9108958FEF809370008093710052
:100CB000809372008093730080937400809375001A
:100CC00080937600E3DF9091500092609093500003
:100CD0008FBF8091510081FFFCCF61E080E490E004
:100CE000BBD1D4DF909150009E7F909350008FBF76
:100CF00081E08093430008951F93CF93DF931F9269
:100D0000CDB7DEB7182F6983C1DFE12FF0E0E059DE
:100D1000FF4F698160959081692360838FBF0F9039
:100D2000DF91CF911F910895CF93DF93C82FD62FD6
:100D3000ADDFEC2FF0E0E059FF4F6081D62BD08380
:100D40008FBFDF91CF910895FC0180E090E0262FC6
:100D500030E0D901082E02C0B595A7950A94E2F7B4
:100D6000A0FF05C0DF01A80FB91F50965C93019644
:100D70008830910571F740FF07C041FF02C06583CD
:100D800001C066836183089562830895CF93DF93E2
:100D90001F92CDB7DEB78091422390914323E0911B
:100DA0003E23F0913F23BE016F5F7F4F09958981FC
:100DB000082E000C990B0F90DF91CF910895682FAA
:100DC0008091422390914323E0914023F09141236D
:100DD000099597FD03C081E090E008958FEF9FEFA4
:100DE0000895CF93DF931F92CDB7DEB78FB7898376
:100DF000F89489810F90DF91CF91089581159240E9
:100E000059F48091262391E0980F90932623811125
:100E100003C062E081E070CF08958115924051F4E3
:100E200080912623815080932623811103C062E0A4
:100E300081E07ACF08951F93CF93DF93EC01D1DF48
:100E4000182FCE01DBDF9881916098831FBF8091BE
:100E500039238F3F09F4FFCFC4DF909139239F5F7F
:100E6000909339238FBFDF91CF911F9108951F93E6
:100E7000CF93DF93EC01B5DF182F98819E7F988385
:100E8000CE01CBDF1FBF80913923811101C0FFCF7D
:100E9000A8DF909139239150909339238FBFDF9130
:100EA000CF911F910895CF93DF931F92CDB7DEB7F7
:100EB0008FB78983F89489810F90DF91CF9108953E
:100EC0001F920F920FB60F9211242F933F934F93BF
:100ED0005F936F937F938F939F93AF93BF93EF93A2
:100EE000FF934091240250912502E0914423F09118
:100EF000452361E080E092E00995FF91EF91BF9179
:100F0000AF919F918F917F916F915F914F913F91A1
:100F10002F910F900FBE0F901F901895FF920F9377
:100F20001F93CF93DF9381159240A9F5EB0161E206
:100F300070E082E002D1082F10E060E270E082E011
:100F4000FCD0102F0027082BAEDFF82E80E092E0B7
:100F500055DF90910002917082E08093000200932F
:100F60000C0210930D022C813D81209318023093C6
:100F700019028981809302028B81809304028A8105
:100F8000809303028881809301029093000280E0A5
:100F900092E043DFFFBEDF91CF911F910F91FF9051
:100FA0000895FF920F931F93CF93DF93EC018B0172
:100FB0007ADFF82ECE0122DF888D998DF8018483A7
:100FC00095838A8181838C8183838B8182838981CC
:100FD0008083CE0122DFFFBEDF91CF911F910F9161
:100FE000FF900895FF920F931F93CF93DF93EC012F
:100FF0008A0159DFF82ECE0101DFF801808188A334
:1010000082818AA3818189A383818EA3CE0105DF9A
:10101000FFBEDF91CF911F910F91FF900895FF9236
:101020000F931F93CF93DF93EC018A013CDFF82EDF
:10103000CE01E4DE88A1F80180838AA1828389A1A0
:1010400081838EA18383CE01E8DEFFBEDF91CF9145
:101050001F910F91FF9008951BBEFC0128ED24BF46
:10106000608308958091CF0187FDFCCF0895CF93D1
:10107000DF93EC01F7DFECECF1E0808188608083A6
:10108000D05F88819081977F9083DF91CF91089581
:10109000E9DF8091CF0181FF07C086E38093CA0119
:1010A00061E08BEC91E0D8CF0895CF93DF9300D02F
:1010B000CDB7DEB76A838983D5DFACECB1E09C9114
:1010C00098609C938981E82FF0E0F05F6A816083EB
:1010D0008C91877F8C930F900F90DF91CF91089523
:1010E000EF92FF920F931F93CF93DF9300D0CDB772
:1010F000DEB7182F80ECE82EFF24F394F701028569
:1011000069839A83C5DFAEDF6981812FCEDFF70166
:1011100012829A819183108385E3828761E08BEC50
:1011200091E09ADFF70102870F900F90DF91CF9146
:101130001F910F91FF90EF9008954091CA01E62F03
:10114000F72F8093CA0184914093CA0108950F93A9
:101150001F93CF93DF931F92CDB7DEB78091010429
:1011600080FDFCCF8FB78983F89429818091462335
:1011700090914723609108047091090461157105ED
:1011800021F43091030430FD01962FBFA0E0B0E0C0
:10119000DC0199278827AB0160E070E08C019D019C
:1011A000042B152B262B372BC901B8010F90DF918B
:1011B000CF911F910F910895CF93DF931F92CDB7D9
:1011C000DEB764E080E098DD8FEF9FEF80930A0444
:1011D00090930B04109208041092090480913B2311
:1011E0008F3F09F4FFCF8FB78983F894998180915D
:1011F0003B238F5F80933B239FBF81E0809302045A
:1012000087E0809300040F90DF91CF9108951F92A3
:101210000F920FB60F9211248F939F93EF93FF932A
:10122000E6E4F3E280819181019680839183FF91CE
:10123000EF919F918F910F900FBE0F901F90189577
:101240001F920F920FB60F921124CF92DF92EF925E
:10125000FF920F931F932F933F934F935F936F933F
:101260007F938F939F93AF93BF93EF93FF9340919F
:10127000462350914723009148231091492340175A
:101280005107B8F181E080930204E0914C23F09182
:101290004D23309771F1809108049091090460E02A
:1012A00070E0BA0155274427A0E0B0E06A017B0155
:1012B000C82AD92AEA2AFB2AC701B60120E030E071
:1012C000980111270027C0904A23D0904B23E12C8E
:1012D000F12C0C291D292E293F290617170728074D
:1012E000390730F0C901B8016F5F7F4F8F4F9F4FB3
:1012F0000995FF91EF91BF91AF919F918F917F9150
:101300006F915F914F913F912F911F910F91FF909E
:10131000EF90DF90CF900F900FBE0F901F90189519
:10132000CF93DF93E0912723F0912823848183FFDB
:1013300006C08860848383E0838386EF7FC0982F14
:10134000947121F083E083838FEF78C086FF41C0E2
:10135000A0912923B0912A2380912B2390912C23B3
:1013600014962D913C9115978217930764F49C0174
:101370002F5F3F4F20932B2330932C23A80FB91FAF
:1013800011968C9122C080912D2390912E23189636
:101390002D913C91199782179307C8F420912F2320
:1013A000222321F08681816086834AC016962D9182
:1013B0003C911797AC014F5F5F4F40932D235093A3
:1013C0002E23D901A80FB91F8C91878339C083E0E0
:1013D0002CC087FF32C0A0912923B0912A2380918D
:1013E0002D2390912E2318962D913C9119978217B9
:1013F0009307F8F416966D917C9117979C012F5FD7
:101400003F4F20932D2330932E234781EB01C80FAC
:10141000D91F488318968D919C91199728173907E1
:1014200018F482E083830CC087E083831092312319
:1014300007C083E0838389EF01C08BEF8093312362
:10144000DF91CF9108951F920F920FB60F92112442
:101450002F933F934F935F936F937F938F939F93BC
:10146000AF93BF93EF93FF935BDFFF91EF91BF913A
:10147000AF919F918F917F916F915F914F913F912C
:101480002F910F900FBE0F901F9018951F920F92E3
:101490000FB60F9211242F933F934F935F936F9347
:1014A0007F938F939F93AF93BF93EF93FF9338DF17
:1014B000FF91EF91BF91AF919F918F917F916F912C
:1014C0005F914F913F912F910F900FBE0F901F9002
:1014D0001895009709F45EC0811524E0920711F475
:1014E00064E005C0803821E0920719F462E080E0F2
:1014F00050C0803823E0920711F461E005C08115E7
:1015000022E0920719F462E081E043C0811528E0EF
:10151000920711F461E036C0811529E0920711F4B9
:1015200061E029C081152AE0920711F461E030C022
:10153000803428E0920711F462E024C0803928E06A
:10154000920711F464E01EC0803C28E0920711F479
:1015500068E018C0803C29E0920711F468E00BC0F5
:10156000803A28E0920711F460E10CC0803A29E04B
:10157000920719F460E184E00CC0803824E09207FF
:1015800019F460E483E005C0803A944019F460E403
:1015900085E0B2CB0895FC01218125FFFCCF60835B
:1015A00080E090E00895FC01218127FFFCCF80813D
:1015B00008958F929F92AF92BF92CF92DF92EF9257
:1015C000FF920F931F93CF93DF93EC016A017B018E
:1015D00048015901B901A801E3E07695679557954F
:1015E0004795EA95D1F7D901C801F6E1B695A795D7
:1015F00097958795FA95D1F72C8122FD08C07695AD
:10160000679557954795B695A795979587954C15E6
:101610005D056E057F0508F495C0C816D906EA0673
:10162000FB0608F48FC08C8182FD04C0CC0CDD1C4D
:10163000EE1CFF1CC501B401A70196019FD119EF53
:101640008FEF90E0A0E0B0E0281739074A075B076A
:1016500058F0880F991FAA1FBB1F1D3F0CF4816013
:101660001F5F173089F748C017FF46C0D701C60172
:10167000F3E0880F991FAA1FBB1FFA95D1F7881AAC
:10168000990AAA0ABB0A812F012E000C990B1E3F52
:10169000DCF42DEF3FEFA901481B590B04C0880C67
:1016A000991CAA1CBB1C4A95D2F7D701C601B69556
:1016B000A79597958795BC01CD01680D791D8A1D69
:1016C0009B1DA701960116C00396A701960104C0B1
:1016D000220F331F441F551F8A95D2F7DA01C90123
:1016E000B695A79597958795BC01CD01680D791D95
:1016F0008A1D9B1D43D11CC083E0810FA701960169
:1017000004C0220F331F441F551F8A95D2F7DA01F8
:10171000C901B695A79597958795BC01CD01680D30
:10172000791D8A1D9B1D2AD121503109410951097A
:10173000932F9F70812F8295807F892B8F832E839B
:1017400081E001C080E0DF91CF911F910F91FF9068
:10175000EF90DF90CF90BF90AF909F908F900895C3
:101760000F931F93CF93DF93EC018B01B2DE8D813A
:101770008F738D83F80194818581892B96819111D6
:1017800098E0892B8D83F8014081518162817381BA
:1017900000E018E428EE31E0CE010BDF9C81986078
:1017A0009C839C8190619C83DF91CF911F910F91CD
:1017B0000895CF93DF93EB01F6DE8883DF91CF911D
:1017C0000895E9CECF93DF93CDB7DEB72797CDBF8E
:1017D000DEBF69DA31DA87E08093A200EDDC80EACF
:1017E00098E0809342239093432381EE9BE0809383
:1017F00040239093412389ED9BE080933E23909377
:101800003F2313E01D831E821F8280E092ECA1E043
:10181000B0E089839A83AB83BC8360E183E06CDAB8
:10182000BE016F5F7F4F80EA98E09ADF66EC76E05A
:101830008FED96E009D1ECD984E08093A2007894F2
:1018400080EC91E29CD11F921F9386EE91E29F93D0
:101850008F9382D18AEF91E292D109D85DD90F900E
:101860000F900F900F90DD24D3940BEF12E284E0E1
:10187000F82E98E0E92E8091A10887FF4AC0809158
:101880004E2390914F232AD1843609F042C0D09242
:1018900032238DE192E273D180E492E270D183E64B
:1018A00092E26DD18FE892E26AD18FEA92E267D13B
:1018B00089ED92E264D180913223882351F18091A5
:1018C000A10887FFFCCF80914E2390914F2306D132
:1018D000813719F4109232231CC0843611F448D990
:1018E000EACF803711F418D9E6CF853611F4F1D854
:1018F000E2CF843701F71F930F932ED1F092270682
:10190000E0922706F0928706E09287060F900F90EC
:10191000D2CFF8940E94270378942FEF87EA91E6BC
:10192000215080409040E1F700C00000A4CFAA1BE6
:10193000BB1B51E107C0AA1FBB1FA617B70710F0BA
:10194000A61BB70B881F991F5A95A9F780959095EC
:10195000BC01CD01089597FB072E16F4009406D024
:1019600077FD08D0E4DF07FC05D03EF49095819523
:101970009F4F0895709561957F4F0895A1E21A2EAB
:10198000AA1BBB1BFD010DC0AA1FBB1FEE1FFF1F23
:10199000A217B307E407F50720F0A21BB30BE40B73
:1019A000F50B661F771F881F991F1A9469F76095BA
:1019B0007095809590959B01AC01BD01CF01089574
:1019C000052E97FB16F400940FD057FD05D0D6DFF7
:1019D00007FC02D046F408C05095409530952195FB
:1019E0003F4F4F4F5F4F089590958095709561954B
:1019F0007F4F8F4F9F4F0895A29FB001B39FC001AB
:101A0000A39F700D811D1124911DB29F700D811D2A
:101A10001124911D0895F0DFB7FF0895821B930BE9
:101A20000895EADFA59F900DB49F900DA49F800DAF
:101A3000911D11240895FB01DC0102C001900D925B
:101A400041505040D8F708950F931F93CF93DF93E1
:101A5000009731F46115710519F480E090E039C008
:101A60008B01EC016EE070E081E090E07BD2FC0144
:101A7000892B99F380E883830115110571F00287A2
:101A8000138781E8838380914E2390914F23892B84
:101A900021F4E0934E23F0934F232097C9F0C087A1
:101AA000D1878381826083838091502390915123D9
:101AB000892B71F4E0935023F093512380915223AA
:101AC00090915323892B21F4E0935223F0935323D5
:101AD000CF01DF91CF911F910F910895CF93DF93A5
:101AE000EC012B8120FF33C026FF0AC02F7B2B8304
:101AF0008E819F8101968E839F838A8190E029C089
:101B000022FF0FC0E881F9818081082E000C990B1B
:101B1000009719F420622B831AC03196E883F98369
:101B20000EC0EA85FB85099597FF09C02B810196B8
:101B300011F080E201C080E1822B8B8308C02E81EE
:101B40003F812F5F3F4F2E833F83992702C08FEF46
:101B50009FEFDF91CF910895A0E0B0E0E1EBFDE0D1
:101B60000BC4AE014B5F5F4FFA0161917191AF0100
:101B7000809150239091512332D0E2E016C40F930C
:101B80001F93CF93DF93E0915023F0915123238152
:101B900021FF1BC08C01D0E0C0E0F80181918F01D2
:101BA0006091502370915123DB011896ED91FC91C7
:101BB0001997882331F00995892B79F3DFEFCFEF5F
:101BC000ECCF8AE00995892B19F08FEF9FEF02C0C7
:101BD0008D2F9C2FDF91CF911F910F910895ACE035
:101BE000B0E0E4EFFDE0B8C37C016B018A01FC01C9
:101BF00016821782838181FFB0C1CE0101964C010C
:101C0000F7019381F60193FD859193FF81916F0117
:101C1000882309F49EC1853239F493FD859193FFA1
:101C200081916F01853221F4B70190E0FFD2E8CFB6
:101C3000512C312C20E02032A0F48B3269F030F4AA
:101C4000803259F0833269F420612CC08D3239F032
:101C5000803339F4216026C02260246023C02860CC
:101C600021C027FD27C030ED380F3A3078F426FF29
:101C700006C0FAE05F9E300D1124532E13C08AE097
:101C8000389E300D1124332E20620CC08E3221F488
:101C900026FD5FC1206406C08C3611F4206802C0A6
:101CA000883641F4F60193FD859193FF81916F0190
:101CB0008111C1CF982F9F7D9554933028F40C5FEC
:101CC0001F4FFFE3F9830DC0833631F0833771F086
:101CD000833509F057C021C0F801808189830E5FE8
:101CE0001F4F44244394512C540114C03801F2E096
:101CF0006F0E711CF801A080B18026FF03C0652D16
:101D000070E002C06FEF7FEFC5012C8784D22C01F9
:101D100083012C852F77222E16C03801F2E06F0E3A
:101D2000711CF801A080B18026FF03C0652D70E012
:101D300002C06FEF7FEFC5012C875BD22C012C8591
:101D40002068222E830123FC19C0832D90E04816C1
:101D50005906A0F4B70180E290E068D23A94F5CF3A
:101D6000F50127FC859127FE81915F01B70190E085
:101D70005DD231103A94F1E04F1A510841145104E8
:101D800079F7DEC0843611F0893631F5F80127FF86
:101D900007C060817181828193810C5F1F4F08C0F1
:101DA00060817181072E000C880B990B0E5F1F4F0D
:101DB0002F76722E97FF09C090958095709561954A
:101DC0007F4F8F4F9F4F2068722E2AE030E0A40192
:101DD00065D2A82EA81843C0853729F42F7EB22ECD
:101DE0002AE030E025C0F22FF97FBF2E8F36C1F0F8
:101DF00018F4883579F0ADC0803719F0883721F0B4
:101E0000A8C02F2F2061B22EB4FE0DC08B2D846090
:101E1000B82E09C024FF0AC09F2F9660B92E06C0B5
:101E200028E030E005C020E130E002C020E132E0EF
:101E3000F801B7FE07C060817181828193810C5FD8
:101E40001F4F06C06081718180E090E00E5F1F4FE0
:101E5000A40124D2A82EA818FB2DFF777F2E76FE92
:101E60000BC0372D3E7FA51450F474FE0AC072FCDF
:101E700008C0372D3E7E05C0BA2C372D03C0BA2CC2
:101E800001C0B52C34FF0DC0FE01EA0DF11D8081AB
:101E9000803311F4397E09C032FF06C0B394B39485
:101EA00004C0832F867809F0B39433FD12C030FF4D
:101EB00006C05A2CB31418F4530C5B18B32CB3148B
:101EC00060F4B70180E290E03C87B0D1B3943C85E8
:101ED000F6CFB31410F43B1801C0312C34FF11C0FD
:101EE000B70180E390E03C87A1D13C8532FF16C06A
:101EF00031FD03C088E790E002C088E590E0B701BB
:101F00000CC0832F867851F031FF02C08BE201C0F4
:101F100080E237FD8DE2B70190E088D1A51430F45E
:101F2000B70180E390E082D15A94F8CFAA94F401EB
:101F3000EA0DF11D8081B70190E078D1A110F6CFB4
:101F4000332009F45DCEB70180E290E06FD13A947E
:101F5000F7CFF7018681978102C08FEF9FEF2C9614
:101F6000E2E113C20F931F93CF93DF93869F80010B
:101F7000879F100D969F100D1124C8010DD0EC0104
:101F8000009721F0A80160E070E03ED1CE01DF9122
:101F9000CF911F910F910895CF93DF9382309105D8
:101FA00010F482E090E0E0915623F091572320E076
:101FB00030E0C0E0D0E0309711F140815181481706
:101FC0005907C0F04817590761F48281938120971F
:101FD00019F08A839B832BC08093562390935723B9
:101FE00026C02115310519F04217530718F49A013C
:101FF000BE01DF01EF010280F381E02DDCCF21156E
:10200000310509F1281B390B2430310590F4129663
:102010008D919C9113976115710521F0FB018283CD
:10202000938304C08093562390935723FD013296E7
:1020300044C0FD01E20FF31F8193919322503109B7
:102040002D933C933AC02091542330915523232B58
:1020500041F42091022030910320209354233093A7
:10206000552320910020309101202115310541F4A4
:102070002DB73EB74091042050910520241B350B0D
:10208000E0915423F0915523E217F307A0F42E1B9F
:102090003F0B2817390778F0AC014E5F5F4F2417CC
:1020A000350748F04E0F5F1F40935423509355233C
:1020B0008193919302C0E0E0F0E0CF01DF91CF91F6
:1020C00008950F931F93CF93DF93009709F48CC06B
:1020D000FC013297128213820091562310915723EC
:1020E0000115110581F420813181820F931F209108
:1020F0005423309155232817390779F5E093542359
:10210000F093552371C0D80140E050E0AE17BF07EF
:1021100050F412962D913C911397AD012115310584
:1021200009F1D901F3CF9D01DA0122833383608164
:102130007181860F971F8217930769F4EC0128813C
:102140003981260F371F2E5F3F4F208331838A81CD
:102150009B8182839383452B29F4E0935623F0934C
:10216000572342C01296ED93FC931397ED014991CA
:1021700059919E01240F351FE217F30771F48081F6
:102180009181840F951F02968D939C931197828164
:10219000938112968D939C931397E0E0F0E0D80121
:1021A00012968D919C911397009719F0F8018C016C
:1021B000F6CF8D919C9198012E5F3F4F820F931F18
:1021C00020915423309155232817390769F430970B
:1021D00029F4109256231092572302C012821382C0
:1021E0000093542310935523DF91CF911F910F91AA
:1021F0000895FC010590615070400110D8F780955A
:1022000090958E0F9F1F0895DC0101C06D93415082
:102210005040E0F70895FC016150704001900110BA
:10222000D8F7809590958E0F9F1F08950F931F9359
:10223000CF93DF93FB01238121FD03C08FEF9FEF3D
:1022400028C022FF16C0468157812481358142175C
:10225000530744F4A081B1819D012F5F3F4F20833C
:1022600031838C93268137812F5F3F4F26833783BD
:1022700010C0EB01092F182F0084F185E02D09957E
:10228000892BE1F68E819F8101968E839F83812F1A
:10229000902FDF91CF911F910F910895FA01AA27F6
:1022A000283051F1203181F1E8946F936E7F6E5F99
:1022B0007F4F8F4F9F4FAF4FB1E03ED0B4E03CD047
:1022C000670F781F891F9A1FA11D680F791F8A1F2A
:1022D000911DA11D6A0F711D811D911DA11D20D091
:1022E00009F468943F912AE0269F11243019305D4B
:1022F0003193DEF6CF010895462F4770405D41933C
:10230000B3E00FD0C9F7F6CF462F4F70405D4A3388
:1023100018F0495D31FD4052419302D0A9F7EACF50
:10232000B4E0A6959795879577956795BA95C9F77F
:1023300000976105710508959B01AC010A2E069472
:102340005795479537952795BA95C9F7620F731F2B
:10235000841F951FA01D08952F923F924F925F9268
:102360006F927F928F929F92AF92BF92CF92DF92A5
:10237000EF92FF920F931F93CF93DF93CDB7DEB70A
:10238000CA1BDB0BCDBFDEBF09942A883988488879
:102390005F846E847D848C849B84AA84B984C88481
:1023A000DF80EE80FD800C811B81AA81B981CE0F78
:0E23B000D11DCDBFDEBFED010895F894FFCF23
:1023BE00000058232000013323000000000000001D
:1023CE000000006810740EF4013C00F41A000000C6
:1023DE00000000000000000000546F627920436886
:1023EE0075726368696C6C00003138363535203192
:1023FE007332700000000000004C494F4E00000088
:10240E0000000000000000000000000000000000BE
:10241E0000000000000000000000000000000000AE
:10242E00000000000000000000000000000000009E
:10243E00000000000000000000000000000000008E
:10244E000000006810740EF4013C00F41A00000045
:10245E00000000000000000000546F627920436805
:10246E0075726368696C6C00003138363535203111
:10247E007332700000000000004C494F4E00000007
:10248E00000000000000000000000000000000003E
:10249E00000000000000000000000000000000002E
:1024AE00000000000000000000000000000000001E
:1024BE000000000000000000004552524F523A202A
:1024CE004661696C656420746F2076657269667901
:1024DE002064617461207772697474656E20746F04
:1024EE00204E564D206174206164647265737320B2
:1024FE0030782530327820283078253032782021F7
:10250E003D20307825303278290D0A0045726173EE
:10251E00696E6720616C6C206D656D6F7279206DD0
:10252E006170202E2E2E2000646F6E650D0050728D
:10253E006F6772616D6D696E672064656661756C3B
:10254E00742076616C756573202E2E2E20004D65DD
:10255E006D6F7279204D61703A0D007B20307825B9
:10256E003032782C20307825303278207D2C2000A7
:10257E000C0A0D2D2D2054434C204261747465724B
:10258E007920436F756C6F6D6220436F756E746545
:10259E0072202D2D0D002D2D2056657273696F6ED4
:1025AE003A202564202D2D0D0A000D0A50726573F8
:1025BE00732027642720746F20656E7465722069FE
:1025CE006E2074657374206D6F64650D000A0D576F
:1025DE00656C636F6D6520746F207468652074651B
:1025EE007374206D6F64652E2050726573730D00C9
:1025FE00202D206B65792027712720746F20657838
:10260E0069742066726F6D2074657374206D6F64CB
:10261E00650D00202D206B65792027642720746FAF
:10262E002064756D7020746865204D656D6F7279CC
:10263E00204D617020636F6E74656E74730D002093
:10264E002D206B65792027652720746F20657261B8
:10265E007365204D656D6F7279204D61700D002090
:10266E002D206B65792027702720746F2070726F74
:10267E006772616D2064656661756C74204D656D61
:10268E006F7279204D61700D00202D206B657920C1
:10269E0027742720746F20746F67676C65206F75C1
:1026AE00747075742070696E730D00546F67676C6B
:1026BE006520616C6C206F75747075742070696E16
:0426CE00730A0D007E
:00000001FF
