:10000000B5C00000D0C00000CEC00000CCC00000D1
:10001000CAC00000C8C00000C6C00000C4C00000C4
:10002000C2C00000C0C000000C94C4090C94DD09DB
:10003000BAC000000C94E90AB6C00000B4C00000C9
:10004000B2C00000B0C00000AEC00000ACC00000F4
:10005000AAC00000A8C00000A6C00000A4C0000004
:100060005CC60000A0C000009EC000009CC0000054
:100070009AC0000098C0000096C0000094C0000024
:1000800092C0000090C000008EC000008CC0000034
:100090008AC0000088C0000086C0000084C0000044
:1000A00082C0000080C000007EC000007CC0000054
:1000B0007AC0000078C000000C940C0B74C00000E3
:1000C00072C0000070C000006EC000006CC0000074
:1000D0006AC0000068C0000066C0000064C0000084
:1000E00062C0000060C000005EC000005CC0000094
:1000F0005AC0000058C0000056C0000054C00000A4
:1001000052C0000050C000004EC000004CC00000B3
:100110004AC0000048C0000046C000005EC70000A2
:1001200042C0000040C000003EC000003CC00000D3
:100130003AC0000038C0000036C0000034C00000E3
:1001400032C0000030C000002EC000002CC00000F3
:100150002AC0000028C0000026C0000024C0000003
:1001600022C0000020C000001EC0000011241FBEDD
:10017000CFEFCDBFD7E2DEBF15E2A0E0B0E2E8E509
:10018000F6E202C005900D92AA3AB107D9F725E22E
:10019000AAEAB5E201C01D92AA3EB207E1F70E94A9
:1001A000FE0C0C942A132CCFCF93DF9300D0CDB745
:1001B000DEB79BD389839A8342E0BE016F5F7F4F96
:1001C00080E7BCD40F900F90DF91CF910895CF932B
:1001D000DF9300D0CDB7DEB704D489839A8342E0A1
:1001E000BE016F5F7F4F82E7A9D40F900F90DF9120
:1001F000CF910895CF93DF9300D0CDB7DEB742E023
:10020000BE016F5F7F4F80E7EBD489819A810F90A9
:100210000F90DF91CF910895CF93DF9300D0CDB7AA
:10022000DEB742E0BE016F5F7F4F82E7D9D489819C
:100230009A810F900F90DF91CF910895CF93DF9324
:1002400000D0CDB7DEB742E0BE016F5F7F4F80E5E3
:10025000C7D489819A810F900F90DF91CF91089533
:10026000CF93DF9300D0CDB7DEB7E8DF89839A83E1
:1002700042E0BE016F5F7F4F80E560D40F900F902A
:10028000DF91CF9108958F929F92AF92BF92CF92BC
:10029000DF92EF92FF920F931F93CF93DF93CDB72F
:1002A000DEB72697CDBFDEBF41E0BE016F5F7F4F57
:1002B00084E796D48981803219F484E68A839CC0CD
:1002C000803111F41A8298C080910620882309F4A5
:1002D00059C042E0BE016D5F7F4F80E781D442E0AC
:1002E000BE016B5F7F4F8AE07BD4ED80FE808DE79F
:1002F000E81AF108ED82FE82CB80DC80C601A0E026
:10030000B0E09C01AD012C5A3D4041095109A4E6E1
:10031000B0E00E944A0E870120E030E0A901980178
:100320002C5A3D40410951090E94190E2A83EC14B0
:10033000FD0418F484E68A8317C09CEAC9169DE080
:10034000D90610F41A8210C0253670F01F922F9330
:1003500087E091E29F938F930E94F90E84E68A834F
:100360000F900F900F900F908A811F928F9383E4CC
:1003700091E29F938F930E94F90E0F900F900F9030
:100380000F903AC0C090B825D090B925E090BA251A
:10039000F090BB258090B4259090B525A090B6250F
:1003A000B090B7258C149D04AE04BF041CF484E601
:1003B0008A8313C0FF2014F41A820FC0A4E6B0E0B1
:1003C000A70196010E944A0EA50194010E94190EF0
:1003D0002A83253610F084E68A83FF92EF92DF921B
:1003E000CF928A811F928F9386E791E29F938F939A
:1003F0000E94F90ECDBFDEBF41E0BE016E5F7F4FB0
:1004000086E79CD32696CDBFDEBFDF91CF911F91AB
:100410000F91FF90EF90DF90CF90BF90AF909F90A3
:100420008F900895CF92DF92EF92FF920F931F93D8
:10043000CF93DF93CDB7DEB72C97CDBFDEBF42E0C1
:10044000BE016D5F7F4F84E7CBD342E0BE01695FA1
:100450007F4F82E7C5D342E0BE016B5F7F4F82E1F1
:10046000BFD342E0BE01655F7F4F8AE0B9D32B85E1
:100470003C85AFE5B0E00E94350E24E630E040E078
:1004800050E00E94190E69017A0142E0BE01675FE7
:100490007F4F82E1A5D309851A8542E0BE01655FE1
:1004A0007F4F80E79DD342E0BE01675F7F4F82E7C9
:1004B00097D38B859C85A0E0B0E0C816D906EA06E4
:1004C000FB0674F5C801110FAA0BBB0BBC01CD01D3
:1004D000660F771F881F991F24E630E040E050E048
:1004E0000E94190E89859A8599231CF4919581950E
:1004F0009109092E000CAA0BBB0B82179307A407C6
:10050000B50774F48091AA259091AB2586309105AA
:100510000CF047C101968093AA259093AB2578C132
:100520001092AA251092AB2573C180E190E08983D7
:100530009A831092B8251092B9251092BA2510927C
:10054000BB2590C08F819885181619060CF041C004
:1005500020E430E029833A83092E000CAA0BBB0B60
:100560004091B8255091B9256091BA257091BB256D
:100570008A019B01081B190B2A0B3B0B4AF00093C5
:10058000B8251093B9252093BA253093BB2508C010
:100590001092B8251092B9251092BA251092BB2559
:1005A0008091BB258F938091BA258F938091B92537
:1005B0008F938091B8258F9380EB91E29F938F93D7
:1005C0000E94F90E0F900F900F900F900F900F90C8
:1005D00049C019821A82092E000CAA0BBB0B40914C
:1005E000B8255091B9256091BA257091BB258A0133
:1005F0009B01081B190B2A0B3B0B0093B82510938A
:10060000B9252093BA253093BB254091B42550914C
:10061000B5256091B6257091B7254017510762073F
:10062000730744F44093B8255093B9256093BA25D5
:100630007093BB258091BB258F938091BA258F93B2
:100640008091B9258F938091B8258F9380EB91E2AB
:100650009F938F930E94F90E0F900F900F900F9021
:100660000F900F908B819C818031910529F48CEC47
:1006700091E20E940C0F16C08032910529F484EE9D
:1006800091E20E940C0F0EC0009729F489EF91E2CD
:100690000E940C0F07C08034910521F489E092E29A
:1006A0000E940C0F2B813C8189819A812817390780
:1006B00009F4BBC042E0BE016F5F7F4F84E73ED2CA
:1006C0008B819C818032910561F429813A812034AB
:1006D000310509F04FC08CE192E20E940C0F2BD63D
:1006E000A4C08034910599F429813A8120313105E3
:1006F000C1F580E492E20E940C0FE7D56093B0252B
:100700007093B1258093B2259093B3258EC080312C
:10071000910551F429813A81232B61F587E692E214
:100720000E940C0F08D681C0009721F529813A81DB
:100730002032310571F48BE892E20E940C0FC5D58E
:100740006093AC257093AD258093AE259093AF2533
:100750006CC02034310571F48CEA92E20E940C0FD7
:1007600064C029813A81232B29F48BEC92E20E9408
:100770000C0F5BC02A812F9329812F939F938F9316
:100780008AEE92E29F938F930E94F90E8BE093E2A0
:100790000E940C0F0F900F900F900F900F900F90E2
:1007A00044C080E290E089839A832D813E81A6E453
:1007B000B0E00E94350E24E630E040E050E00E94B8
:1007C000190EA0E1BEE00E944A0E6093B42570931A
:1007D000B5258093B6259093B7256093B82570937F
:1007E000B9258093BA259093BB259F938F937F93D0
:1007F0006F9382E393E29F938F930E94F90E10927E
:1008000006200F900F900F900F900F900F902ACF0F
:1008100042E0BE01675F7F4F80E7E2D189859A851C
:100820008C3A9D4008F481CE8DCE2C96CDBFDEBF94
:10083000DF91CF911F910F91FF90EF90DF90CF90BC
:1008400008950F931F93CF93DF9300D0CDB7DEB7FA
:1008500019821A82A9DCBBDCE5DD15DD01DD298109
:100860003A8180E090E0FC01E957FF4D4081240F80
:10087000311D01968E379105B1F729833A838A811C
:1008800080930521898180930621B4DC182F092FDC
:10089000B1DC0F931F939F938F938EE493E29F930A
:1008A0008F930E94F90EB8DC182F092FB5DC0F9337
:1008B0001F939F938F938FE693E29F938F930E9452
:1008C000F90E03D59F938F937F936F9380E993E203
:1008D0009F938F930E94F90ECDBFDEBF0F900F90B4
:1008E000DF91CF911F910F9108950F931F93CF9395
:1008F000DF93CDB7DEB72C97CDBFDEBFBE016F5FF4
:100900007F4F80E092E0E8D389819A819F789A8333
:1009100092E09C83817E89831B82BE016F5F7F4F43
:1009200080E092E088D3AE01495F5F4F61E080E0F4
:1009300092E034D481E08F8380E188878985807F4D
:100940008987AE01495F5F4F61E080E092E0F8D3B4
:1009500080E092E0F2D299E100E010E0E0E0F2E025
:1009600041E08FB78C87F8942C85808184608083E8
:100970002FBF868180FFFDCF46838FB78B87F8948A
:100980008B8524A135A18FBF020F131F915049F70A
:1009900080E092E0FDD29801AFEAB7E40E94350E04
:1009A000081B190B169507959C01200F311F3295D6
:1009B00022952F7023273F702327A6E6BCE00E94D4
:1009C000350E28EE33E040E050E00E94F70DC901FB
:1009D0002C96CDBFDEBFDF91CF911F910F9108956F
:1009E0000895EF92FF920F931F93CF93DF93CDB7AC
:1009F000DEB72997CDBFDEBFBE016F5F7F4F80E0BE
:100A000092E06AD389819A819F789A8392E09C834D
:100A1000817E806189831B82BE016F5F7F4F80E092
:100A200092E009D3AE014F5F5F4F61E080E092E05A
:100A3000B5D383E189831A828B81807F8B83AE015A
:100A40004F5F5F4F61E080E092E07AD380E092E018
:100A500074D229E140E050E0E0E0F2E061E08FB7DD
:100A60008987F89489859081946090838FBF96815F
:100A700090FFFDCF66838FB78887F894388584A16F
:100A800095A13FBF480F591F215049F7CA0169E19D
:100A900070E00E94E40D8B01AE014F5F5F4F61E09B
:100AA00080E092E07BD383E1898388E08A838B8135
:100AB000807F8B83AE014F5F5F4F61E080E092E00B
:100AC0003FD329E1E12CF12CE0E0F2E041E08FB7E7
:100AD0008F83F8948F819081946090838FBF9681EB
:100AE00090FFFDCF46838FB78983F894398184A125
:100AF00095A13FBFE80EF91E215049F780E092E032
:100B000047D2C70169E170E00E94E40DD801A61B3D
:100B1000B70B2EEC31E00E94440E28EE33E040E0AB
:100B200050E00E94190EC9012996CDBFDEBFDF91AA
:100B3000CF911F910F91FF90EF900895AF92BF92C8
:100B4000CF92DF92EF92FF920F931F93CF93DF9399
:100B50004423D1F1082F4150E42EF12C8FEFE81AF5
:100B6000F80AE60EF71E102FEB01C02ED12CC61A84
:100B7000D70A0037E0F4A12EB12C6881C50176D3E5
:100B8000C50140D39881981791F01F929F931F92AF
:100B90008F9387EA93E29F938F930E94F90E0F90B1
:100BA0000F900F900F900F900F908AEE0EC0F601ED
:100BB000EC0FFD1F9991E957FF4D90831F5FCE15F4
:100BC000DF05B9F680E001C080E0DF91CF911F9191
:100BD0000F91FF90EF90DF90CF90BF90AF9008956E
:100BE000282FCB0150E030E0B90169577F4D0C94BC
:100BF000680E08951F93CF93DF931F92CDB7DEB792
:100C00008FEF898386EE93E29F938F930E94F90E74
:100C10000F900F9010E041E0BE016F5F7F4F812F7A
:100C20008DDF1F5F1038B9F782E094E20E940C0F4D
:100C30000F90DF91CF911F9108950F931F93CF9342
:100C4000DF931F92CDB7DEB788E094E29F938F9336
:100C50000E94F90E0F900F9000E010E0F801E95F9C
:100C6000FF4D8081898341E0BE016F5F7F4F802F00
:100C700065DF0F5F1F4F0038110581F782E094E2B6
:100C80000E940C0F0F90DF91CF911F910F9108954B
:100C9000CF92DF92EF92FF920F931F93CF93DF9348
:100CA00088E294E29F938F930E94F90E0F2EF7E84B
:100CB000CF2EF0E2DF2EF02D0F2EF7E0EF2EF1E237
:100CC000FF2EF02D0F900F90E60106E314E2CE0107
:100CD0008C199D0929911F922F939F938F931F9396
:100CE0000F930E94F90E0F900F900F900F900F909E
:100CF0000F90CE15DF0559F78FE694E29F938F93FF
:100D00000E94F90E0F900F90DF91CF911F910F91DC
:100D1000FF90EF90DF90CF9008951F920F920FB643
:100D20000F9211248F93EF93FF938091C3088093C8
:100D3000C9258091C92588231CF48FEF8093C308AF
:100D4000E091C925F0E0E957FF4D80818093C30809
:100D5000FF91EF918F910F900FBE0F901F901895FC
:100D600068E083E04FD0E0ECF8E080E4808383E04B
:100D700081838281882324F4838182818823E4F320
:100D80008FEF8093C308089588E080934006809396
:100D90004506E0E2F6E094E09183968381838583C3
:100DA000E0E8F6E0918396838183858340E050E01C
:100DB00060E180E496E051D040E050E060E280E401
:100DC00096E04BD043E050E060E480E496E045D00C
:100DD00040E050E060E880E496E03FC008958FEF87
:100DE00080937000809371008093720080937300F1
:100DF00080937400809375008093760081E08093E7
:100E000043000895CF93DF931F92CDB7DEB79FB70E
:100E10009983F8949981E82FF0E0E059FF4F6095AD
:100E20008081682360839FBF0F90DF91CF910895E9
:100E3000CF93DF931F92CDB7DEB79FB79983F89416
:100E40009981E82FF0E0E059FF4F8081682B6083A3
:100E50009FBF0F90DF91CF910895CF93DF93FC0157
:100E6000709620E030E0C62FD0E0DE01022E02C0F6
:100E7000B595A7950A94E2F7A0FD50832F5F3F4FE9
:100E800031962830310589F740FF0AC041FF03C081
:100E9000FC01658302C0FC016683FC01618302C022
:100EA000FC016283DF91CF910895CF93DF931F926E
:100EB000CDB7DEB78091D4259091D525E091D0258E
:100EC000F091D125BE016F5F7F4F09958981082E72
:100ED000000C990B0F90DF91CF910895682F8091AE
:100EE000D4259091D525E091D225F091D32509956F
:100EF00099231CF081E090E008958FEF9FEF089513
:100F00008115924059F48091BC2591E0980F9093FF
:100F1000BC25811103C062E081E074CF0895811582
:100F2000924051F48091BC2581508093BC25811161
:100F300003C062E081E07CCF0895EF92FF921F939F
:100F4000CF93DF9300D0CDB7DEB77C018FB78A8314
:100F5000F8941A81C701D4DFF70180818160808312
:100F60001FBF8091CB258F3F09F4FFCF8FB78983B7
:100F7000F8949981EAECF5E281818F5F81839FBFCC
:100F80000F900F90DF91CF911F91FF90EF900895F8
:100F90001F93CF93DF9300D0CDB7DEB72FB72A834F
:100FA000F8941A81FC0120812E7F2083B8DF1FBFB7
:100FB0008091CB25811101C0FFCF8FB78983F89431
:100FC0009981EAECF5E28181815081839FBF0F9086
:100FD0000F90DF91CF911F9108951F920F920FB63E
:100FE0000F9211242F933F934F935F936F937F93AF
:100FF0008F939F93AF93BF93EF93FF9340912402FE
:1010000050912502E091D625F091D72561E080E04E
:1010100092E00995FF91EF91BF91AF919F918F91D0
:101020007F916F915F914F913F912F910F900FBEE4
:101030000F901F901895BF92CF92DF92EF92FF9280
:101040000F931F93CF93DF931F92CDB7DEB7811518
:1010500022E09207B1F56B018C0161E270E082E061
:101060002AD1E82EF12C60E270E082E024D1FE2C3F
:10107000EE24E82A8FB78983F894B980C80140DF4D
:10108000F8018081817092E09083E486F586F60114
:1010900024813581F801208F318FF6019181F8018B
:1010A0009283F6019381F8019483F6019281F8010D
:1010B0009383F6019081F80191838083C8012FDF2B
:1010C000BFBE0F90DF91CF911F910F91FF90EF90D6
:1010D000DF90CF90BF900895DF92EF92FF920F9331
:1010E0001F93CF93DF931F92CDB7DEB78C017B01A7
:1010F0008FB78983F894D980C80102DFF801808D09
:10110000918DF70184839583F8018281F7018183B2
:10111000F8018481F7018383F8018381F7018283D9
:10112000F8018181F7018083C801F9DEDFBE0F90ED
:10113000DF91CF911F910F91FF90EF90DF90089575
:10114000DF92EF92FF920F931F93CF93DF931F9243
:10115000CDB7DEB78C017A018FB78983F894D98037
:10116000C801CEDEF7018081F80180A3F7018281FA
:10117000F80182A3F7018181F80181A3F70183813E
:10118000F80186A3C801CBDEDFBE0F90DF91CF91BF
:101190001F910F91FF90EF90DF900895DF92EF92F3
:1011A000FF920F931F93CF93DF931F92CDB7DEB7BC
:1011B0008C017A018FB78983F894D980C801A0DEA9
:1011C000F80180A1F7018083F80182A1F7018283F1
:1011D000F80181A1F7018183F80186A1F7018383DA
:1011E000C8019DDEDFBE0F90DF91CF911F910F915F
:1011F000FF90EF90DF9008951BBEFC0128ED24BF07
:1012000060830895DC01E0ECF1E097859923ECF32D
:10121000ECECF1E0808188608083B05F8C919081FC
:10122000977F90830895E0ECF1E087858823ECF3C5
:101230008091CF0181FF07C086E38093CA0161E0FE
:101240008BEC91E0D9CF0895E0ECF1E097859923FC
:10125000ECF3ACECB1E09C9198609C93E82FF0E04B
:10126000F05F60838C91877F8C930895FF920F933A
:101270001F93CF93DF93182FF92EC62F0091CA0129
:10128000D2DFE0ECF1E027852223ECF36C2F812FF5
:10129000DBDFC0ECD1E01A82F982188385E38A870C
:1012A00061E08BEC91E0A8DF0A87DF91CF911F917D
:1012B0000F91FF9008954091CA01E62FF72F809378
:1012C000CA0184914093CA0108950F931F93CF934D
:1012D000DF931F92CDB7DEB7E0E0F4E0818180FDBF
:1012E000FDCF8FB78983F89429814091D8255091FB
:1012F000D9258091080490910904009731F4309128
:10130000030430FF02C04F5F5F4F2FBF60E070E00B
:10131000BA0155274427A0E0B0E08A019B01082BC1
:10132000192B2A2B3B2BC901B8010F90DF91CF91CC
:101330001F910F910895CF93DF931F92CDB7DEB722
:1013400064E080E05FDDE0E0F4E08FEF9FEF828714
:101350009387108611868091CD258F3F09F4FFCFAA
:101360008FB78983F8949981EAECF5E283818F5FE6
:1013700083839FBFE0E0F4E081E0828387E08083A5
:101380000F90DF91CF9108951F920F920FB60F9299
:1013900011248F939F93EF93FF93E8EDF5E2808103
:1013A0009181019680839183FF91EF919F918F911D
:1013B0000F900FBE0F901F9018951F920F920FB6AF
:1013C0000F921124CF92DF92EF92FF920F931F930F
:1013D0002F933F934F935F936F937F938F939F933D
:1013E000AF93BF93EF93FF93E8EDF5E28081918196
:1013F0002281338182179307F0F121E020930204C8
:10140000E091DE25F091DF253097A9F16091080485
:1014100070910904A0E0B0E0DC0199278827AB01B6
:1014200060E070E08C019D01042B152B262B372BDF
:10143000C901B801A8EDB5E212960D911C91139760
:1014400020E030E09801112700271496CD90DC9021
:101450001597E12CF12C0C291D292E293F2906175F
:1014600017072807390730F0C901B8016F5F7F4FB0
:101470008F4F9F4F0995FF91EF91BF91AF919F9132
:101480008F917F916F915F914F913F912F911F911C
:101490000F91FF90EF90DF90CF900F900FBE0F90C5
:1014A0001F901895CF93DF93E091BD25F091BE2555
:1014B000848183FF08C08860848383E0838386EF10
:1014C0008093C72583C0982F947131F083E0838384
:1014D0008FEF8093C7257AC086FF43C0CDEBD5E25E
:1014E000AA81BB818C819D8114962D913C91159789
:1014F000821793076CF49C012F5F3F4F2093C12507
:101500003093C225A80FB91F11968C9187835EC0B6
:101510008091C3259091C42518962D913C911997DF
:1015200082179307C8F42091C525222321F08681D4
:10153000816086834BC016962D913C911797AC0124
:101540004F5F5F4F4093C3255093C425D901A80F27
:10155000B91F8C9187833AC083E083831092C7259B
:1015600035C0882384F5ADEBB5E21296CD91DC91C0
:10157000139716968D919C91179728853985821718
:101580009307D8F46E817F819C012F5F3F4F20939A
:10159000C3253093C4254781DB01A80FB91F4C93A5
:1015A000888599852817390718F482E083830EC04F
:1015B00087E083831092C72509C083E0838389EF86
:1015C0008093C72503C08BEF8093C725DF91CF9110
:1015D00008951F920F920FB60F9211242F933F93ED
:1015E0004F935F936F937F938F939F93AF93BF932B
:1015F000EF93FF9357DFFF91EF91BF91AF919F91D1
:101600008F917F916F915F914F913F912F910F90AB
:101610000FBE0F901F9018951F920F920FB60F924A
:1016200011242F933F934F935F936F937F938F93E7
:101630009F93AF93BF93EF93FF9334DFFF91EF91AD
:10164000BF91AF919F918F917F916F915F914F91DA
:101650003F912F910F900FBE0F901F901895FC0196
:10166000918195FFFDCF608380E090E00895FC01BB
:1016700091819923ECF7808108952F923F924F92A8
:101680005F926F927F928F929F92AF92BF92CF9212
:10169000DF92EF92FF920F931F93CF931C012A01C9
:1016A0003B0148015901D901C801689412F8B69567
:1016B000A795979587951694D1F7B901A801032EA0
:1016C00036E176956795579547953A95D1F7302D40
:1016D000F101248122FD08C0B695A79597958795BD
:1016E000769567955795479584159505A605B70591
:1016F00008F4AAC0441655066606770608F4A6C084
:10170000F101848182FD04C0440C551C661C771CC9
:10171000C501B401A30192016AD22F3F31054105F1
:10172000510508F495C0C12CD12C7601CA94C9EF9B
:1017300005C02C153D054E055F0568F0CC0CDD1C81
:10174000EE1CFF1CCD3F14F46894C0F8CF5FC73087
:1017500081F78C2F54C08C2FCC230CF050C0D301B8
:10176000C201880F991FAA1FBB1F880F991FAA1FAC
:10177000BB1F880F991FAA1FBB1F85017401E81AA0
:10178000F90A0A0B1B0BD801C701CE3FECF42DEF71
:101790003FEF2C1B3109C7FD339504C0880F991FFB
:1017A000AA1FBB1F2A95D2F773016201F694E79432
:1017B000D794C794BC01CD016C0D7D1D8E1D9F1D5E
:1017C000A301920114D236C023E02C0F83017201D1
:1017D00004C0EE0CFF1C001F111F2A95D2F7A801B0
:1017E000970167017801F694E794D794C794BC01F8
:1017F000CD016C0D7D1D8E1D9F1DF9D11BC08D5F10
:10180000A301920104C0220F331F441F551F8A9564
:10181000D2F7DA01C901B695A79597958795BC01CE
:10182000CD01680D791D8A1D9B1DE1D12150310923
:1018300041095109832F8F70C295C07FC82BF101D8
:10184000C783268381E01CC080E01AC080E018C0F6
:10185000D301C201880F991FAA1FBB1F880F991FB0
:10186000AA1FBB1F880F991FAA1FBB1F85017401E8
:10187000E81AF90A0A0B1B0BD801C701C9EF87CF79
:10188000CF911F910F91FF90EF90DF90CF90BF907D
:10189000AF909F908F907F906F905F904F903F9010
:1018A0002F9008950F931F93CF93DF93EC018B013B
:1018B000892B09F477C0C11584E0D80721F464E0CE
:1018C00080E0A0DA6FC0C038E1E0DE0721F462E01A
:1018D00080E098DA67C0C038F3E0DF0721F461E008
:1018E00081E090DA5FC0C11582E0D80721F462E0A0
:1018F00081E088DA57C0C115E8E0DE0721F461E035
:1019000083E080DA4FC0C115F9E0DF0721F461E020
:1019100084E078DA47C0C1158AE0D80721F461E095
:1019200085E070DA3FC0C034E8E0DE0721F462E011
:1019300083E068DA37C0C039F8E0DF0721F464E0FB
:1019400083E060DA2FC0C03C88E0D80721F468E06B
:1019500083E058DA27C0C03CE9E0DE0721F468E004
:1019600084E050DA1FC0C03AF8E0DF0721F460E1FC
:1019700083E048DA17C0C03A89E0D80721F460E173
:1019800084E040DA0FC0C038E4E0DE0721F460E410
:1019900083E038DA07C0C03AF4E0DF0719F460E406
:1019A00085E030DA8D818F738D83F8019481858194
:1019B000892B9681911198E0892B8D83F8014081C4
:1019C00051816281738100E814E82EE130E0CE019C
:1019D00054DE9C8198609C839C8190619C83DF9104
:1019E000CF911F910F910895CF93DF93EB013FDECD
:1019F0008883DF91CF91089532CE0895CF93DF93FE
:101A0000CDB7DEB72797CDBFDEBFE9D9BDD900EA94
:101A100010E087E0F80182838EDC80EA98E0809312
:101A2000D4259093D5258CEF9CE08093D22590937C
:101A3000D32584EF9CE08093D0259093D12583E03B
:101A40008D831E821F8280E092ECA1E0B0E089834A
:101A50009A83AB83BC8360E183E0D4D9BE016F5F1E
:101A60007F4F80EA98E01EDF65E577E08EE697E03D
:101A700038D176D984E0F801828378948BE494E2BB
:101A80009F938F93B6D182E794E29F938F9384E7DD
:101A900094E29F938F93ADD188E894E29F938F93C4
:101AA000A8D10E94F004C9D8CDBFDEBF00EA18E07B
:101AB0000F2EF0EEEF2EF5E2FF2EF02D0F2EFCEAAA
:101AC000AF2EF4E2BF2EF02D0F2EF0EDCF2EF4E26C
:101AD000DF2EF02D0F2EF0E98F2EF5E29F2EF02D48
:101AE0000F2EF0E26F2EF6E07F2EF02D0F2EF0E895
:101AF0004F2EF6E05F2EF02DF801818188230CF047
:101B000057C0F7018081918136D1843609F050C0E9
:101B100081E08093C825BF92AF926BD1DF92CF92C4
:101B200068D184EF94E29F938F9363D181E295E231
:101B30009F938F935ED182E495E29F938F9359D1C7
:101B40008DE695E29F938F9354D1CDBFDEBF68940D
:101B5000222422F86894332433F826C0F8018181C6
:101B60008823E4F7F7018081918105D1813719F449
:101B70001092C8251DC0843611F48AD815C080374C
:101B800011F45BD811C0853611F434D80DC08437F8
:101B900059F49F928F922DD1F30127823782F2015F
:101BA000278237820F900F908091C8258111D6CF60
:101BB0000E942104FFE72AE186E0F15020408040A6
:101BC000E1F700C0000098CF97FB072E16F40094B1
:101BD00006D077FD08D068D007FC05D03EF490957C
:101BE00081959F4F0895709561957F4F0895A1E26B
:101BF0001A2EAA1BBB1BFD010DC0AA1FBB1FEE1F87
:101C0000FF1FA217B307E407F50720F0A21BB30BD1
:101C1000E40BF50B661F771F881F991F1A9469F74D
:101C200060957095809590959B01AC01BD01CF01A9
:101C30000895052E97FB16F400940FD057FD05D09C
:101C4000D6DF07FC02D046F408C050954095309589
:101C500021953F4F4F4F5F4F089590958095709518
:101C600061957F4F8F4F9F4F0895A29FB001B39F03
:101C7000C001A39F700D811D1124911DB29F700D95
:101C8000811D1124911D0895F0DFB7FF0895821B77
:101C9000930B0895EADFA59F900DB49F900DA49F2C
:101CA000800D911D11240895AA1BBB1B51E107C093
:101CB000AA1FBB1FA617B70710F0A61BB70B881FDC
:101CC000991F5A95A9F780959095BC01CD0108956B
:101CD000FB01DC0102C001900D9241505040D8F749
:101CE00008950F931F93CF93DF93009731F46115FD
:101CF000710519F480E090E039C08B01EC016EE0D1
:101D000070E081E090E07BD2FC01892B99F380E8C0
:101D100083830115110571F00287138781E883839E
:101D20008091E0259091E125892B21F4E093E02535
:101D3000F093E1252097C9F0C087D1878381826025
:101D400083838091E2259091E325892B71F4E093C0
:101D5000E225F093E3258091E4259091E525892BF8
:101D600021F4E093E425F093E525CF01DF91CF91B5
:101D70001F910F910895CF93DF93EC012B8120FFEA
:101D800033C026FF0AC02F7B2B838E819F81019653
:101D90008E839F838A8190E029C022FF0FC0E88153
:101DA000F9818081082E000C990B009719F42062AC
:101DB0002B831AC03196E883F9830EC0EA85FB8530
:101DC000099597FF09C02B81019611F080E201C0AF
:101DD00080E1822B8B8308C02E813F812F5F3F4F94
:101DE0002E833F83992702C08FEF9FEFDF91CF9122
:101DF0000895A0E0B0E0EEEFFEE00BC4AE014B5F53
:101E00005F4FFA0161917191AF018091E22590914C
:101E1000E32532D0E2E016C40F931F93CF93DF93F4
:101E2000E091E225F091E325238121FF1BC08C0185
:101E3000D0E0C0E0F80181918F016091E2257091BE
:101E4000E325DB011896ED91FC911997882331F079
:101E50000995892B79F3DFEFCFEFECCF8AE0099575
:101E6000892B19F08FEF9FEF02C08D2F9C2FDF91F0
:101E7000CF911F910F910895ACE0B0E0E1E4FFE055
:101E8000B8C37C016B018A01FC0116821782838131
:101E900081FFB0C1CE0101964C01F7019381F6019B
:101EA00093FD859193FF81916F01882309F49EC171
:101EB000853239F493FD859193FF81916F018532CD
:101EC00021F4B70190E0FFD2E8CF512C312C20E073
:101ED0002032A0F48B3269F030F4803259F0833232
:101EE00069F420612CC08D3239F0803339F42160DF
:101EF00026C02260246023C0286021C027FD27C09F
:101F000030ED380F3A3078F426FF06C0FAE05F9ED5
:101F1000300D1124532E13C08AE0389E300D112449
:101F2000332E20620CC08E3221F426FD5FC1206466
:101F300006C08C3611F4206802C0883641F4F601E0
:101F400093FD859193FF81916F018111C1CF982FEE
:101F50009F7D9554933028F40C5F1F4FFFE3F98366
:101F60000DC0833631F0833771F0833509F057C0E7
:101F700021C0F801808189830E5F1F4F4424439460
:101F8000512C540114C03801F2E06F0E711CF8019D
:101F9000A080B18026FF03C0652D70E002C06FEF06
:101FA0007FEFC5012C8784D22C0183012C852F77EC
:101FB000222E16C03801F2E06F0E711CF801A080CD
:101FC000B18026FF03C0652D70E002C06FEF7FEF88
:101FD000C5012C875BD22C012C852068222E830121
:101FE00023FC19C0832D90E048165906A0F4B701D0
:101FF00080E290E068D23A94F5CFF50127FC859114
:1020000027FE81915F01B70190E05DD231103A94D3
:10201000F1E04F1A51084114510479F7DEC08436BB
:1020200011F0893631F5F80127FF07C06081718111
:10203000828193810C5F1F4F08C060817181072EE0
:10204000000C880B990B0E5F1F4F2F76722E97FF97
:1020500009C090958095709561957F4F8F4F9F4FE8
:102060002068722E2AE030E0A40165D2A82EA818BC
:1020700043C0853729F42F7EB22E2AE030E025C0F8
:10208000F22FF97FBF2E8F36C1F018F4883579F022
:10209000ADC0803719F0883721F0A8C02F2F2061FC
:1020A000B22EB4FE0DC08B2D8460B82E09C024FF63
:1020B0000AC09F2F9660B92E06C028E030E005C008
:1020C00020E130E002C020E132E0F801B7FE07C0B5
:1020D00060817181828193810C5F1F4F06C0608196
:1020E000718180E090E00E5F1F4FA40124D2A82EE2
:1020F000A818FB2DFF777F2E76FE0BC0372D3E7F75
:10210000A51450F474FE0AC072FC08C0372D3E7E40
:1021100005C0BA2C372D03C0BA2C01C0B52C34FF32
:102120000DC0FE01EA0DF11D8081803311F4397E6E
:1021300009C032FF06C0B394B39404C0832F8678DD
:1021400009F0B39433FD12C030FF06C05A2CB3140B
:1021500018F4530C5B18B32CB31460F4B70180E28D
:1021600090E03C87B0D1B3943C85F6CFB31410F423
:102170003B1801C0312C34FF11C0B70180E390E05F
:102180003C87A1D13C8532FF16C031FD03C088E7F2
:1021900090E002C088E590E0B7010CC0832F8678FC
:1021A00051F031FF02C08BE201C080E237FD8DE2C9
:1021B000B70190E088D1A51430F4B70180E390E036
:1021C00082D15A94F8CFAA94F401EA0DF11D8081CE
:1021D000B70190E078D1A110F6CF332009F45DCE9D
:1021E000B70180E290E06FD13A94F7CFF701868192
:1021F000978102C08FEF9FEF2C96E2E113C20F93FD
:102200001F93CF93DF93869F8001879F100D969F2A
:10221000100D1124C8010DD0EC01009721F0A80188
:1022200060E070E03ED1CE01DF91CF911F910F9120
:102230000895CF93DF938230910510F482E090E00F
:10224000E091E825F091E92520E030E0C0E0D0E021
:10225000309711F14081518148175907C0F0481754
:10226000590761F482819381209719F08A839B83B7
:102270002BC08093E8259093E92526C021153105D0
:1022800019F04217530718F49A01BE01DF01EF015C
:102290000280F381E02DDCCF2115310509F1281BE7
:1022A000390B2430310590F412968D919C9113973F
:1022B0006115710521F0FB018283938304C0809333
:1022C000E8259093E925FD01329644C0FD01E20F17
:1022D000F31F81939193225031092D933C933AC07F
:1022E0002091E6253091E725232B41F4209102200F
:1022F000309103202093E6253093E725209100209C
:10230000309101202115310541F42DB73EB74091A0
:10231000042050910520241B350BE091E625F09117
:10232000E725E217F307A0F42E1B3F0B2817390708
:1023300078F0AC014E5F5F4F2417350748F04E0F21
:102340005F1F4093E6255093E7258193919302C048
:10235000E0E0F0E0CF01DF91CF9108950F931F935C
:10236000CF93DF93009709F48CC0FC01329712825F
:1023700013820091E8251091E9250115110581F4DA
:1023800020813181820F931F2091E6253091E7252E
:102390002817390779F5E093E625F093E72571C012
:1023A000D80140E050E0AE17BF0750F412962D91CF
:1023B0003C911397AD012115310509F1D901F3CFF6
:1023C0009D01DA012283338360817181860F971F1B
:1023D0008217930769F4EC0128813981260F371F92
:1023E0002E5F3F4F208331838A819B818283938339
:1023F000452B29F4E093E825F093E92542C0129695
:10240000ED93FC931397ED01499159919E01240F8F
:10241000351FE217F30771F480819181840F951FB6
:1024200002968D939C9311978281938112968D933E
:102430009C931397E0E0F0E0D80112968D919C9167
:102440001397009719F0F8018C01F6CF8D919C91AC
:1024500098012E5F3F4F820F931F2091E625309108
:10246000E7252817390769F4309729F41092E825F1
:102470001092E92502C0128213820093E625109380
:10248000E725DF91CF911F910F910895FC010590F1
:10249000615070400110D8F7809590958E0F9F1F66
:1024A0000895DC0101C06D9341505040E0F708955C
:1024B000FC016150704001900110D8F78095909513
:1024C0008E0F9F1F08950F931F93CF93DF93FB01F0
:1024D000238121FD03C08FEF9FEF28C022FF16C08C
:1024E00046815781248135814217530744F4A081E6
:1024F000B1819D012F5F3F4F208331838C932681D3
:1025000037812F5F3F4F2683378310C0EB01092FA0
:10251000182F0084F185E02D0995892BE1F68E8135
:102520009F8101968E839F83812F902FDF91CF9182
:102530001F910F910895FA01AA27283051F12031F7
:1025400081F1E8946F936E7F6E5F7F4F8F4F9F4F47
:10255000AF4FB1E03ED0B4E03CD0670F781F891F89
:102560009A1FA11D680F791F8A1F911DA11D6A0F57
:10257000711D811D911DA11D20D009F468943F910A
:102580002AE0269F11243019305D3193DEF6CF0109
:102590000895462F4770405D4193B3E00FD0C9F7CF
:1025A000F6CF462F4F70405D4A3318F0495D31FD3C
:1025B0004052419302D0A9F7EACFB4E0A69597958F
:1025C000879577956795BA95C9F700976105710565
:1025D00008959B01AC010A2E0694579547953795AF
:1025E0002795BA95C9F7620F731F841F951FA01D09
:1025F00008952F923F924F925F926F927F928F92A7
:102600009F92AF92BF92CF92DF92EF92FF920F9381
:102610001F93CF93DF93CDB7DEB7CA1BDB0BCDBFC4
:10262000DEBF09942A88398848885F846E847D8457
:102630008C849B84AA84B984C884DF80EE80FD806A
:102640000C811B81AA81B981CE0FD11DCDBFDEBF08
:08265000ED010895F894FFCF9D
:102658000000EA2520000100000000000000000042
:10266800006810740EF4013C0050140000000000D3
:1026780000000000000000546F6279204368757202
:102688006368696C6C000031383635352031733237
:10269800700000000000004C494F4E000000000090
:1026A8000000000000000000000000000000000022
:1026B8000000000000000000000000000000000012
:1026C8000000000000000000000000000000000002
:1026D80000000000000000000000000000000000F2
:1026E800006810740EF4013C005014000000000053
:1026F80000000000000000546F6279204368757282
:102708006368696C6C0000313836353520317332B6
:10271800700000000000004C494F4E00000000000F
:1027280000000000000000000000000000000000A1
:102738000000000000000000000000000000000091
:102748000000000000000000000000000000000081
:10275800000000000000005741524E3A2052656DBB
:1027680061696E696E67206361706163697479205D
:102778006F7574206F662072616E67653A202564F4
:102788002E2053657474696E6720746F2031303061
:102798000D0A00494E464F3A2052656D61696E69CF
:1027A8006E672063617061636974793A20256420DB
:1027B80028766F6C7461676520657374696D6174E0
:1027C8006564290D0A00494E464F3A2052656D61ED
:1027D800696E696E672063617061636974793A2014
:1027E80025642028616363756D756C617465642068
:1027F80063757272656E743A20256C64290D0A003F
:10280800494E464F3A20456E6572677920636F7569
:102818006E7465723A20256C640D0A00494E464F65
:102828003A2046554C4C595F444953434841524716
:1028380045440D00494E464F3A2046554C4C595F89
:10284800434841524745440D00494E464F3A2043BC
:1028580048415247494E470D00494E464F3A204499
:1028680049534348415247494E470D00494E464F48
:102878003A2046554C4C595F4348415247454420FD
:102888002D3E204449534348415247494E470D0085
:10289800494E464F3A204449534348415247494ECE
:1028A80047202D3E2046554C4C595F4449534348D8
:1028B80041524745440D00494E464F3A2046554C33
:1028C8004C595F44495343484152474544202D3EA3
:1028D800204348415247494E470D00494E464F3A1A
:1028E800204348415247494E47202D3E2046554CEB
:1028F8004C595F434841524745440D00494E464FA5
:102908003A204348415247494E47202D3E204449EA
:10291800534348415247494E470D00494E464F3AA6
:10292800204449534348415247494E47202D3E20B1
:102938004348415247494E470D005741524E3A20AD
:102948005472616E736974696F6E20253032782015
:102958002D3E2025303278210D0A005741524E3A3B
:10296800204D6179626520626174746572792069AD
:1029780073206E6F7420636F6E6E65637465643F59
:102988000D00546F74616C20426174746572792013
:10299800456E657267793A20256C640D0A00494EC8
:1029A800464F3A20566F6C746167653A2025346447
:1029B800206D562028307825303478290D0A0049B2
:1029C8004E464F3A2043757272656E743A2025342C
:1029D80064206D412028307825303478290D0A008C
:1029E800494E464F3A2054696D657374616D703A6B
:1029F80020256C640A0D004552524F523A20466118
:102A0800696C656420746F207665726966792064E4
:102A1800617461207772697474656E20746F204EDA
:102A2800564D202830782530327820213D203078C6
:102A380025303278290045726173696E6720616CB0
:102A48006C206D656D6F7279206D6170202E2E2E51
:102A58002000646F6E650D0050726F6772616D6D56
:102A6800696E672064656661756C742076616C7543
:102A78006573202E2E2E20004D656D6F7279204DC6
:102A880061703A0A0D007B203078253032782C208E
:102A9800307825303278207D2C20000C0A0D2D2D21
:102AA8002054434C204261747465727920436F75D9
:102AB8006C6F6D6220436F756E746572202D2D0AE0
:102AC8000D0031002D2D2056657273696F6E3A2006
:102AD8002573202D2D0A0D000D0A50726573732081
:102AE80027642720746F20656E74657220696E20D4
:102AF80074657374206D6F64650A0D000A0D57655F
:102B08006C636F6D6520746F2074686520746573DD
:102B180074206D6F64652E2050726573730A0D0002
:102B2800202D206B65792027712720746F20657808
:102B380069742066726F6D2074657374206D6F649C
:102B4800650A0D00202D206B6579202764272074E5
:102B58006F2064756D7020746865204D656D6F72A7
:102B680079204D617020636F6E74656E74730A0D01
:102B780000202D206B65792027652720746F20653C
:102B880072617365204D656D6F7279204D61700AB1
:102B98000D00202D206B65792027702720746F2069
:102BA80070726F6772616D2064656661756C742000
:102BB8004D656D6F7279204D61700A0D00202D20D2
:102BC8006B65792027742720746F20746F67676C92
:102BD80065206F75747075742070696E730A0D00C6
:102BE800546F67676C6520616C6C206F75747075C5
:0A2BF800742070696E730A0D00006E
:00000001FF
