:10000000B5C00000D0C00000CEC00000CCC00000D1
:10001000CAC00000C8C00000C6C00000C4C00000C4
:10002000C2C00000C0C000000C9478080C94910875
:10003000BAC000000C949409B6C00000B4C000001F
:10004000B2C00000B0C00000AEC00000ACC00000F4
:10005000AAC00000A8C00000A6C00000A4C0000004
:1000600026C50000A0C000009EC000009CC000008B
:100070009AC0000098C0000096C0000094C0000024
:1000800092C0000090C000008EC000008CC0000034
:100090008AC0000088C0000086C0000084C0000044
:1000A00082C0000080C000007EC000007CC0000054
:1000B0007AC0000078C000000C94B70974C000003A
:1000C00072C0000070C000006EC000006CC0000074
:1000D0006AC0000068C0000066C0000064C0000084
:1000E00062C0000060C000005EC000005CC0000094
:1000F0005AC0000058C0000056C0000054C00000A4
:1001000052C0000050C000004EC000004CC00000B3
:100110004AC0000048C0000046C0000042C60000BF
:1001200042C0000040C000003EC000003CC00000D3
:100130003AC0000038C0000036C0000034C00000E3
:1001400032C0000030C000002EC000002CC00000F3
:100150002AC0000028C0000026C0000024C0000003
:1001600022C0000020C000001EC0000011241FBEDD
:10017000CFEFCDBFD7E2DEBF13E2A0E0B0E2E2EA0C
:10018000F2E202C005900D92A231B107D9F723E245
:10019000A2E1B3E201C01D92A235B207E1F70E94CD
:1001A000530B0C944F112CCFCF93DF9300D0CDB7CE
:1001B000DEB7A5D289839A8342E0BE016F5F7F4F8D
:1001C00080E791D30F900F90DF91CF910895CF9357
:1001D000DF9300D0CDB7DEB703D389839A8342E0A3
:1001E000BE016F5F7F4F82E77ED30F900F90DF914C
:1001F000CF910895CF93DF931F92CDB7DEB782E002
:10020000898341E0BE016F5F7F4F8DE76CD30F9014
:10021000DF91CF910895CF93DF9300D0CDB7DEB7B4
:1002200042E0BE016F5F7F4F80E5BBD389819A8139
:100230000F900F90DF91CF910895CF93DF9300D06F
:10024000CDB7DEB7E8DF89839A8342E0BE016F5FF6
:100250007F4F80E548D30F900F90DF91CF910895A5
:10026000CF92DF92EF92FF920F931F93CF93DF9382
:10027000CDB7DEB72697CDBFDEBF41E0BE016A5FD6
:100280007F4F84E78ED38E81803211F484E640C0A4
:10029000803111F41D8262C0809106208823D1F143
:1002A00042E0BE016D5F7F4F80E77BD342E0BE013D
:1002B0006F5F7F4F8AE075D329813A81F901ED574D
:1002C000F109E983FA832B813C81E217F307B8F146
:1002D0002C3A8DE03807B8F0C901A0E0B0E09C01ED
:1002E000AD012C5A3D4041095109A4E6B0E00E94FD
:1002F000830C8F0120E030E0A90198012C5A3D4089
:100300004109510927C01D828D81853638F183E668
:100310008D8324C0209120233091212340912223DA
:1003200050912323C0901C23D0901D23E0901E23C6
:10033000F0901F23C216D306E406F5061CF483E6EC
:100340008D83E2CF57FDDFCFA4E6B0E00E94830C9F
:10035000A70196010E94520C2D83D6CF41E0BE0129
:100360006B5F7F4F86E7BFD22696CDBFDEBFDF91A2
:10037000CF911F910F91FF90EF90DF90CF90089554
:10038000AF92BF92CF92DF92EF92FF920F931F93A3
:10039000CF93DF93CDB7DEB72A97CDBFDEBF42E064
:1003A000BE01675F7F4F84E7FCD242E0BE016B5F16
:1003B0007F4F82E7F6D242E0BE01695F7F4F82E164
:1003C000F0D242E0BE016D5F7F4F8AE0EAD2AB809F
:1003D000BC8042E0BE016F5F7F4F82E1E2D20981C3
:1003E0001A8142E0BE016D5F7F4F80E7DAD242E0C2
:1003F000BE016F5F7F4F82E7D4D2CB80DC80E12CDF
:10040000F12C9501AFE5B0E00E946E0C24E630E0DF
:1004100040E050E00E94520C2C153D054E055F0552
:100420003CF5C980DA80D7FE03C0D194C194D108CD
:100430000D2C000CEE08FF08B801110F880B990B6A
:1004400022E330E040E050E00E94520CC216D30696
:10045000E406F5066CF48091122390911323863004
:1004600091055CF4019680931223909313232CC082
:10047000109212231092132327C080E290E0898308
:100480009A832F813885A6E4B0E00E946E0C24E6A2
:1004900030E040E050E00E94520CA0E1BEE00E943B
:1004A000830C60931C2370931D2380931E239093D1
:1004B0001F23609320237093212380932223909302
:1004C00023231092062061C042E0BE016F5F7F4F80
:1004D00080E767D289819A818C3A9D4028F480E137
:1004E00090E089839A8325C02D813E81A901032E46
:1004F000000C660B770B8091202390912123A09113
:100500002223B091232312161306E4F420E430E0F2
:1005100029833A83841B950BA60BB70BB7FD09C043
:100520008093202390932123A0932223B09323230D
:100530002CC010922023109221231092222310927B
:10054000232323C019821A82841B950BA60BB70B99
:100550008093202390932123A0932223B0932323DD
:1005600040911C2350911D2360911E2370911F23E5
:10057000481759076A077B0744F440932023509398
:100580002123609322237093232329853A8589812F
:100590009A8128173907D1F142E0BE016F5F7F4F82
:1005A00084E7A1D189859A858032910539F48981C2
:1005B0009A818034910551F570D528C08034910519
:1005C00071F489819A81409709F532D56093182397
:1005D0007093192380931A2390931B2317C08031A3
:1005E000910529F489819A81892B81F4E5CF892BA2
:1005F00069F489819A81809749F41AD5609314230C
:100600007093152380931623909317232A96CDBFBA
:10061000DEBFDF91CF911F910F91FF90EF90DF90A0
:10062000CF90BF90AF900895CF93DF9300D0CDB718
:10063000DEB719821A82B8DDCADDA2DE11DEFDDD69
:10064000D9DD29813A8180E090E0FC01E957FF4D36
:100650004081240F311D01968E379105B1F7298312
:100660003A838A81809305218981809306210F90A6
:100670000F90DF91CF9108951F93CF93DF9300D018
:1006800000D0CDB7DEB7182FAE014F5F5F4F61E0EE
:1006900080E092E035D4103138F0198280EF810F7C
:1006A000880F880F880F06C083E1898328E0129F96
:1006B000C00111248A838B81807F8B83AE014F5FC1
:1006C0005F4F61E080E092E0FED32496CDBFDEBFB5
:1006D000DF91CF911F910895CF93DF931F92CDB7F4
:1006E000DEB78FB78983F8949981E0E0F2E08081EA
:1006F000846080839FBF0F90DF91CF910895FF9218
:100700000F931F93CF93DF93CDB7DEB72B97CDBF5A
:10071000DEBFBE016F5F7F4F80E092E0B3D389817F
:100720009A819F789A8396E09C83817E89831B823D
:10073000BE016F5F7F4F80E092E061D3AE01495F01
:100740005F4F61E080E092E0DBD381E08F8380E166
:1007500088878985807F8987AE01495F5F4F61E027
:1007600080E092E0B0D380E092E0D6D289E1F82E2A
:1007700000E010E0B1DF80910602982F917080FFB9
:10078000FACF909306028FB78B87F8942B858091D0
:100790002402909125022FBF080F191FFA94F1101F
:1007A000E9CFC80169E170E00E94090C8B0180E08B
:1007B00092E0CED29801A6E6BCE00E946E0C28EE34
:1007C00033E040E050E00E94300CC9012B96CDBFD1
:1007D000DEBFDF91CF911F910F91FF900895089593
:1007E000DF92EF92FF920F931F93CF93DF93CDB7DA
:1007F000DEB72797CDBFDEBFBE016F5F7F4F80E0C2
:1008000092E040D389819A819F789A8396E09C8375
:10081000817E806189831B82BE016F5F7F4F80E094
:1008200092E0EDD280E028DF80E092E075D299E19D
:10083000F92E00E010E050DF80910602982F9170B1
:1008400080FFFACF909306028FB78F83F8942F81A1
:1008500080912402909125022FBF080F191FFA944E
:10086000F110E9CFC80169E170E0E7D78B0181E0C1
:1008700003DF89E1D82EE12CF12C2EDF80910602D6
:10088000982F917080FFFACF909306028FB78983DB
:10089000F894298180912402909125022FBFE80EBF
:1008A000F91EDA94D110E9CF80E092E051D2C7016D
:1008B00069E170E0C2D7D801A61BB70B2EEC31E07E
:1008C0000E947D0C28EE33E040E050E0EBD7C901F8
:1008D0002796CDBFDEBFDF91CF911F910F91FF9083
:1008E000EF90DF9008956F927F928F929F92AF92D8
:1008F000BF92CF92DF92FF920F931F93CF93DF931C
:100900001F92CDB7DEB7182FF42EF80E082F3B013B
:1009100087E0A82E81E2B82EC12ED12CC61AD70AA4
:100920000F1579F1103700F5802E912CC40110D3EA
:10093000F30160818617D1F0C40143D3C40108D309
:10094000682FF3018081681789F01F928F931F929F
:100950006F931F921F93BF92AF9269830E941E0DE7
:10096000CDBFDEBF698102C0F3016081F601E60DF3
:10097000F71DE957FF4D6083FFEF6F1A7F0A0F5F86
:10098000CFCF80E00F90DF91CF911F910F91FF901B
:10099000DF90CF90BF90AF909F908F907F906F909F
:1009A0000895282FCB0150E030E0B90169577F4D01
:1009B000B4C71F93CF93DF931F92CDB7DEB78FEFEE
:1009C00089838AE591E29F938F930E941E0D0F9079
:1009D0000F9010E041E0BE016F5F7F4F812F83DFFA
:1009E0001F5F1038B9F786E791E20E94310D0F9032
:1009F000DF91CF911F9108950F931F93CF93DF93B2
:100A00001F92CDB7DEB78CE791E29F938F930E9440
:100A10001E0D0F900F9000E010E00038110571F0EE
:100A2000F801E95FFF4D8081898341E0BE016F5F7E
:100A30007F4F802F58DF0F5F1F4FEFCF86E791E288
:100A40000E94310D0F90DF91CF911F910F9108956A
:100A5000EF92FF920F931F93CF93DF938CE991E274
:100A60000E94310D87E8E82E80E2F82EC0E0D0E049
:100A700009EA11E2F70181917F011F928F93DF93C1
:100A8000CF931F930F93DAD721960F900F900F906B
:100A90000F900F900F90C038D10561F780E193E27D
:100AA000DF91CF911F910F91FF90EF90DAC71F92C6
:100AB0000F920FB60F9211248F93EF93FF938091B3
:100AC000C308809331238091312387FF02C08FEFC9
:100AD00006C0E0913123F0E0E957FF4D808180931B
:100AE000C308FF91EF918F910F900FBE0F901F9051
:100AF000189568E083E071D080E48093C00883E0BB
:100B00008093C1088091C20887FF03C08091C30809
:100B1000F9CF8FEF8093C308089588E08093400653
:100B200080934506E0E2F6E094E09183968381832A
:100B30008583E0E8F6E0918396838183858340E0B6
:100B400050E060E180E496E070D040E050E060E288
:100B500080E496E06AD043E050E060E480E496E010
:100B600064D040E050E060E880E496E05EC0CF935F
:100B7000DF931F92CDB7DEB78FB78983F894898151
:100B80000F90DF91CF9108958FEF80937000809345
:100B9000710080937200809373008093740080933F
:100BA000750080937600E3DF9091500092609093FF
:100BB00050008FBF8091510081FFFCCF61E080E445
:100BC00090E0BBD1D4DF909150009E7F9093500075
:100BD0008FBF81E08093430008951F93CF93DF93ED
:100BE0001F92CDB7DEB7182F6983C1DFE12FF0E088
:100BF000E059FF4F698160959081692360838FBFC1
:100C00000F90DF91CF911F910895CF93DF93C82F5D
:100C1000D62FADDFEC2FF0E0E059FF4F6081D62BEF
:100C2000D0838FBFDF91CF910895FC0180E090E0E9
:100C3000262F30E0D901082E02C0B595A7950A9459
:100C4000E2F7A0FF05C0DF01A80FB91F50965C9323
:100C500001968830910571F740FF07C041FF02C03F
:100C6000658301C066836183089562830895CF938D
:100C7000DF931F92CDB7DEB780913C2390913D2347
:100C8000E0913823F0913923BE016F5F7F4F0995C2
:100C90008981082E000C990B0F90DF91CF91089558
:100CA000682F80913C2390913D23E0913A23F0916D
:100CB0003B23099597FD03C081E090E008958FEFF5
:100CC0009FEF0895CF93DF931F92CDB7DEB78FB715
:100CD0008983F89489810F90DF91CF9108958115D0
:100CE000924059F48091242391E0980F909324230B
:100CF000811103C062E081E070CF089581159240B8
:100D000051F480912423815080932423811103C0C6
:100D100062E081E07ACF08951F93CF93DF93EC01D7
:100D2000D1DF182FCE01DBDF9881916098831FBF40
:100D3000809133238F3F09F4FFCFC4DF9091332399
:100D40009F5F909333238FBFDF91CF911F910895C1
:100D50001F93CF93DF93EC01B5DF182F98819E7F0F
:100D60009883CE01CBDF1FBF80913323811101C057
:100D7000FFCFA8DF909133239150909333238FBFFF
:100D8000DF91CF911F910895CF93DF931F92CDB73D
:100D9000DEB78FB78983F89489810F90DF91CF9167
:100DA00008951F920F920FB60F9211242F933F9325
:100DB0004F935F936F937F938F939F93AF93BF9363
:100DC000EF93FF934091240250912502E0913E233E
:100DD000F0913F2361E080E092E00995FF91EF916F
:100DE000BF91AF919F918F917F916F915F914F9143
:100DF0003F912F910F900FBE0F901F901895FF926B
:100E00000F931F93CF93DF9381159240A9F5EB01C8
:100E100061E270E082E002D1082F10E060E270E051
:100E200082E0FCD0102F0027082BAEDFF82E80E0E8
:100E300092E055DF90910002917082E08093000271
:100E400000930C0210930D022C813D812093180217
:100E5000309319028981809302028B81809304026E
:100E60008A8180930302888180930102909300021B
:100E700080E092E043DFFFBEDF91CF911F910F91A1
:100E8000FF900895FF920F931F93CF93DF93EC0190
:100E90008B017ADFF82ECE0122DF888D998DF80143
:100EA000848395838A8181838C8183838B818283F0
:100EB00089818083CE0122DFFFBEDF91CF911F9118
:100EC0000F91FF900895FF920F931F93CF93DF939D
:100ED000EC018A0159DFF82ECE0101DFF801808193
:100EE00088A382818AA3818189A383818EA3CE0175
:100EF00005DFFFBEDF91CF911F910F91FF90089505
:100F0000FF920F931F93CF93DF93EC018A013CDF95
:100F1000F82ECE01E4DE88A1F80180838AA18283C5
:100F200089A181838EA18383CE01E8DEFFBEDF919C
:100F3000CF911F910F91FF9008951BBEFC0128EDEA
:100F400024BF608308958091CF0187FDFCCF089571
:100F5000CF93DF93EC01F7DFECECF1E08081886068
:100F60008083D05F88819081977F9083DF91CF913C
:100F70000895E9DF8091CF0181FF07C086E3809368
:100F8000CA0161E08BEC91E0D8CF0895CF93DF9355
:100F900000D0CDB7DEB76A838983D5DFACECB1E092
:100FA0009C9198609C938981E82FF0E0F05F6A81C2
:100FB00060838C91877F8C930F900F90DF91CF91FE
:100FC0000895EF92FF920F931F93CF93DF9300D07A
:100FD000CDB7DEB7182F80ECE82EFF24F394F7018D
:100FE000028569839A83C5DFAEDF6981812FCEDFF9
:100FF000F70112829A819183108385E3828761E0F1
:101000008BEC91E09ADFF70102870F900F90DF9150
:10101000CF911F910F91FF90EF9008954091CA01D9
:10102000E62FF72F8093CA0184914093CA01089557
:101030000F931F93CF93DF931F92CDB7DEB78091AD
:10104000010480FDFCCF8FB78983F89429818091BA
:101050004023909141236091080470910904611527
:10106000710521F43091030430FD01962FBFA0E0FB
:10107000B0E0DC0199278827AB0160E070E08C01CB
:101080009D01042B152B262B372BC901B8010F907E
:10109000DF91CF911F910F910895CF93DF931F920E
:1010A000CDB7DEB764E080E098DD8FEF9FEF8093EF
:1010B0000A0490930B041092080410920904809182
:1010C00035238F3F09F4FFCF8FB78983F894998137
:1010D000809135238F5F809335239FBF81E080937C
:1010E000020487E0809300040F90DF91CF91089570
:1010F0001F920F920FB60F9211248F939F93EF932D
:10110000FF93E0E4F3E280819181019680839183F3
:10111000FF91EF919F918F910F900FBE0F901F90B5
:1011200018951F920F920FB60F921124CF92DF9253
:10113000EF92FF920F931F932F933F934F935F93E1
:101140006F937F938F939F93AF93BF93EF93FF938F
:101150004091402350914123009142231091432319
:1011600040175107B8F181E080930204E0914623D3
:10117000F0914723309771F1809108049091090410
:1011800060E070E0BA0155274427A0E0B0E06A01B2
:101190007B01C82AD92AEA2AFB2AC701B60120E026
:1011A00030E0980111270027C0904423D0904523B8
:1011B000E12CF12C0C291D292E293F290617170790
:1011C0002807390730F0C901B8016F5F7F4F8F4F93
:1011D0009F4F0995FF91EF91BF91AF919F918F9193
:1011E0007F916F915F914F913F912F911F910F913F
:1011F000FF90EF90DF90CF900F900FBE0F901F9059
:101200001895CF93DF93E0912523F09126238481D5
:1012100083FF06C08860848383E0838386EF7FC07A
:10122000982F947121F083E083838FEF78C086FF3D
:1012300041C0A0912723B091282380912923909128
:101240002A2314962D913C9115978217930764F4E5
:101250009C012F5F3F4F2093292330932A23A80F0F
:10126000B91F11968C9122C080912B2390912C2331
:1012700018962D913C91199782179307C8F42091E5
:101280002D23222321F08681816086834AC0169611
:101290002D913C911797AC014F5F5F4F40932B23EB
:1012A00050932C23D901A80FB91F8C91878339C083
:1012B00083E02CC087FF32C0A0912723B091282360
:1012C00080912B2390912C2318962D913C91199766
:1012D00082179307F8F416966D917C9117979C01ED
:1012E0002F5F3F4F20932B2330932C234781EB011B
:1012F000C80FD91F488318968D919C91199728176C
:10130000390718F482E083830CC087E0838310924E
:101310002F2307C083E0838389EF01C08BEF809385
:101320002F23DF91CF9108951F920F920FB60F9246
:1013300011242F933F934F935F936F937F938F93DA
:101340009F93AF93BF93EF93FF935BDFFF91EF9179
:10135000BF91AF919F918F917F916F915F914F91CD
:101360003F912F910F900FBE0F901F9018951F92D5
:101370000F920FB60F9211242F933F934F935F93C9
:101380006F937F938F939F93AF93BF93EF93FF934D
:1013900038DFFF91EF91BF91AF919F918F917F9136
:1013A0006F915F914F913F912F910F900FBE0F90D2
:1013B0001F901895009709F45EC0811524E09207EC
:1013C00011F464E005C0803821E0920719F462E06E
:1013D00080E050C0803823E0920711F461E005C03E
:1013E000811522E0920719F462E081E043C0811583
:1013F00028E0920711F461E036C0811529E09207D8
:1014000011F461E029C081152AE0920711F461E02E
:1014100030C0803428E0920711F462E024C08039A3
:1014200028E0920711F464E01EC0803C28E0920797
:1014300011F468E018C0803C29E0920711F468E0DC
:101440000BC0803A28E0920711F460E10CC0803AAA
:1014500029E0920719F460E184E00CC0803824E0B0
:10146000920719F460E483E005C0803A944019F4CF
:1014700060E485E0B2CB0895FC01218125FFFCCF1B
:10148000608380E090E00895FC01218127FFFCCF7C
:10149000808108958F929F92AF92BF92CF92DF92F8
:1014A000EF92FF920F931F93CF93DF93EC016A01AA
:1014B0007B0148015901B901A801E3E076956795E0
:1014C00057954795EA95D1F7D901C801F6E1B69548
:1014D000A79597958795FA95D1F72C8122FD08C09D
:1014E0007695679557954795B695A795979587955E
:1014F0004C155D056E057F0508F495C0C816D90624
:10150000EA06FB0608F48FC08C8182FD04C0CC0C77
:10151000DD1CEE1CFF1CC501B401A7019601A0D182
:1015200019EF8FEF90E0A0E0B0E0281739074A07E5
:101530005B0758F0880F991FAA1FBB1F1D3F0CF4B3
:1015400081601F5F173089F748C017FF46C0D70179
:10155000C601F3E0880F991FAA1FBB1FFA95D1F7A8
:10156000881A990AAA0ABB0A812F012E000C990B2E
:101570001E3FDCF42DEF3FEFA901481B590B04C0BF
:10158000880C991CAA1CBB1C4A95D2F7D701C6012E
:10159000B695A79597958795BC01CD01680D791DE6
:1015A0008A1D9B1DA701960116C00396A7019601EF
:1015B00004C0220F331F441F551F8A95D2F7DA014A
:1015C000C901B695A79597958795BC01CD01680D82
:1015D000791D8A1D9B1D44D11CC083E0810FA7018A
:1015E000960104C0220F331F441F551F8A95D2F75E
:1015F000DA01C901B695A79597958795BC01CD01EC
:10160000680D791D8A1D9B1D2BD12150310941097F
:101610005109932F9F70812F8295807F892B8F8313
:101620002E8381E001C080E0DF91CF911F910F9167
:10163000FF90EF90DF90CF90BF90AF909F908F90F2
:1016400008950F931F93CF93DF93EC018B01B2DECC
:101650008D818F738D83F80194818581892B96818B
:10166000911198E0892B8D83F8014081518162812D
:10167000738100E018E428EE31E0CE010BDF9C819D
:1016800098609C839C8190619C83DF91CF911F9196
:101690000F910895CF93DF93EB01F6DE8883DF91FE
:1016A000CF910895E9CECF93DF93CDB7DEB72797DB
:1016B000CDBFDEBF69DA31DA87E08093A200EDDCCE
:1016C00080EA98E080933C2390933D2382E59BE061
:1016D00080933A2390933B238AE49BE080933823C2
:1016E0009093392383E08D831E821F8280E092ECE9
:1016F000A1E0B0E089839A83AB83BC8360E183E09F
:101700006CDABE016F5F7F4F80EA98E09ADF67E393
:1017100076E080E596E00AD1ECD984E08093A200DF
:1017200078948EEB91E29DD11F9282E08F9384EEAC
:1017300091E29F938F9382D188EF91E292D14FD81B
:101740005BD90F900F900F900F90DD24D39409EF89
:1017500012E284E0F82E98E0E92E8091A10887FF3C
:101760004AC080914823909149232AD1843609F0B8
:1017700042C0D09230238BE192E273D18EE392E2A9
:1017800070D181E692E26DD18DE892E26AD18DEA64
:1017900092E267D187ED92E264D180913023882371
:1017A00051F18091A10887FFFCCF8091482390914F
:1017B000492306D1813719F4109230231CC0843696
:1017C00011F446D9EACF803711F416D9E6CF853621
:1017D00011F4EFD8E2CF843701F71F930F932ED186
:1017E000F0922706E0922706F0928706E09287069D
:1017F0000F900F90D2CFF8940E94140378942FEF9B
:1018000087EA91E6215080409040E1F700C0000057
:10181000A4CFAA1BBB1B51E107C0AA1FBB1FA61761
:10182000B70710F0A61BB70B881F991F5A95A9F789
:1018300080959095BC01CD01089597FB072E16F475
:10184000009406D077FD08D0E4DF07FC05D03EF415
:10185000909581959F4F0895709561957F4F08955C
:10186000A1E21A2EAA1BBB1BFD010DC0AA1FBB1FA4
:10187000EE1FFF1FA217B307E407F50720F0A21B16
:10188000B30BE40BF50B661F771F881F991F1A9483
:1018900069F760957095809590959B01AC01BD01AD
:1018A000CF010895052E97FB16F400940FD057FD35
:1018B00005D0D6DF07FC02D046F408C0509540950D
:1018C000309521953F4F4F4F5F4F089590958095EC
:1018D000709561957F4F8F4F9F4F0895A29FB001E4
:1018E000B39FC001A39F700D811D1124911DB29F54
:1018F000700D811D1124911D0895F0DFB7FF08952B
:10190000821B930B0895EADFA59F900DB49F900D65
:10191000A49F800D911D11240895FB01DC0102C0DC
:1019200001900D9241505040D8F708950F931F93A6
:10193000CF93DF93009731F46115710519F480E0BE
:1019400090E039C08B01EC016EE070E081E090E046
:101950007BD2FC01892B99F380E883830115110563
:1019600071F00287138781E88383809148239091E7
:101970004923892B21F4E0934823F09349232097AE
:10198000C9F0C087D18783818260838380914A2395
:1019900090914B23892B71F4E0934A23F0934B23CE
:1019A00080914C2390914D23892B21F4E0934C237B
:1019B000F0934D23CF01DF91CF911F910F910895A7
:1019C000CF93DF93EC012B8120FF33C026FF0AC0A9
:1019D0002F7B2B838E819F8101968E839F838A81AB
:1019E00090E029C022FF0FC0E881F9818081082E94
:1019F000000C990B009719F420622B831AC03196C2
:101A0000E883F9830EC0EA85FB85099597FF09C035
:101A10002B81019611F080E201C080E1822B8B8343
:101A200008C02E813F812F5F3F4F2E833F83992730
:101A300002C08FEF9FEFDF91CF910895A0E0B0E05B
:101A4000E3E2FDE00BC4AE014B5F5F4FFA01619131
:101A50007191AF0180914A2390914B2332D0E2E003
:101A600016C40F931F93CF93DF93E0914A23F09115
:101A70004B23238121FF1BC08C01D0E0C0E0F80183
:101A800081918F0160914A2370914B23DB0118965D
:101A9000ED91FC911997882331F00995892B79F301
:101AA000DFEFCFEFECCF8AE00995892B19F08FEFAC
:101AB0009FEF02C08D2F9C2FDF91CF911F910F912F
:101AC0000895ACE0B0E0E6E6FDE0B8C37C016B0150
:101AD0008A01FC0116821782838181FFB0C1CE0189
:101AE00001964C01F7019381F60193FD859193FFD7
:101AF00081916F01882309F49EC1853239F493FDE9
:101B0000859193FF81916F01853221F4B70190E0B7
:101B1000FFD2E8CF512C312C20E02032A0F48B32C0
:101B200069F030F4803259F0833269F420612CC0BE
:101B30008D3239F0803339F4216026C02260246070
:101B400023C0286021C027FD27C030ED380F3A3070
:101B500078F426FF06C0FAE05F9E300D1124532E64
:101B600013C08AE0389E300D1124332E20620CC041
:101B70008E3221F426FD5FC1206406C08C3611F43C
:101B8000206802C0883641F4F60193FD859193FFE9
:101B900081916F018111C1CF982F9F7D9554933012
:101BA00028F40C5F1F4FFFE3F9830DC0833631F03B
:101BB000833771F0833509F057C021C0F801808167
:101BC00089830E5F1F4F44244394512C540114C049
:101BD0003801F2E06F0E711CF801A080B18026FF81
:101BE00003C0652D70E002C06FEF7FEFC5012C8749
:101BF00084D22C0183012C852F77222E16C0380128
:101C0000F2E06F0E711CF801A080B18026FF03C0C6
:101C1000652D70E002C06FEF7FEFC5012C875BD2AE
:101C20002C012C852068222E830123FC19C0832DD2
:101C300090E048165906A0F4B70180E290E068D21F
:101C40003A94F5CFF50127FC859127FE81915F013C
:101C5000B70190E05DD231103A94F1E04F1A51088B
:101C60004114510479F7DEC0843611F0893631F51C
:101C7000F80127FF07C060817181828193810C5F29
:101C80001F4F08C060817181072E000C880B990BD3
:101C90000E5F1F4F2F76722E97FF09C0909580958B
:101CA000709561957F4F8F4F9F4F2068722E2AE06D
:101CB00030E0A40165D2A82EA81843C0853729F4C6
:101CC0002F7EB22E2AE030E025C0F22FF97FBF2E02
:101CD0008F36C1F018F4883579F0ADC0803719F02F
:101CE000883721F0A8C02F2F2061B22EB4FE0DC07E
:101CF0008B2D8460B82E09C024FF0AC09F2F9660E8
:101D0000B92E06C028E030E005C020E130E002C076
:101D100020E132E0F801B7FE07C060817181828165
:101D200093810C5F1F4F06C06081718180E090E05D
:101D30000E5F1F4FA40124D2A82EA818FB2DFF77F9
:101D40007F2E76FE0BC0372D3E7FA51450F474FE17
:101D50000AC072FC08C0372D3E7E05C0BA2C372D54
:101D600003C0BA2C01C0B52C34FF0DC0FE01EA0D32
:101D7000F11D8081803311F4397E09C032FF06C025
:101D8000B394B39404C0832F867809F0B39433FDE1
:101D900012C030FF06C05A2CB31418F4530C5B1851
:101DA000B32CB31460F4B70180E290E03C87B0D16B
:101DB000B3943C85F6CFB31410F43B1801C0312C1A
:101DC00034FF11C0B70180E390E03C87A1D13C858E
:101DD00032FF16C031FD03C088E790E002C088E5FD
:101DE00090E0B7010CC0832F867851F031FF02C01C
:101DF0008BE201C080E237FD8DE2B70190E088D12F
:101E0000A51430F4B70180E390E082D15A94F8CF62
:101E1000AA94F401EA0DF11D8081B70190E078D118
:101E2000A110F6CF332009F45DCEB70180E290E037
:101E30006FD13A94F7CFF7018681978102C08FEF77
:101E40009FEF2C96E2E113C20F931F93CF93DF9382
:101E5000869F8001879F100D969F100D1124C80149
:101E60000DD0EC01009721F0A80160E070E03ED1B8
:101E7000CE01DF91CF911F910F910895CF93DF9302
:101E80008230910510F482E090E0E0915023F091CF
:101E9000512320E030E0C0E0D0E0309711F14081E4
:101EA000518148175907C0F04817590761F48281DA
:101EB0009381209719F08A839B832BC080935023B2
:101EC0009093512326C02115310519F0421753076D
:101ED00018F49A01BE01DF01EF010280F381E02DC9
:101EE000DCCF2115310509F1281B390B24303105D0
:101EF00090F412968D919C9113976115710521F0C4
:101F0000FB018283938304C08093502390935123D9
:101F1000FD01329644C0FD01E20FF31F81939193BE
:101F2000225031092D933C933AC020914E23309199
:101F30004F23232B41F42091022030910320209342
:101F40004E2330934F232091002030910120211502
:101F5000310541F42DB73EB7409104205091052042
:101F6000241B350BE0914E23F0914F23E217F3072A
:101F7000A0F42E1B3F0B2817390778F0AC014E5FF9
:101F80005F4F2417350748F04E0F5F1F40934E23D5
:101F900050934F238193919302C0E0E0F0E0CF0192
:101FA000DF91CF9108950F931F93CF93DF93009705
:101FB00009F48CC0FC0132971282138200915023E5
:101FC000109151230115110581F420813181820F77
:101FD000931F20914E2330914F232817390779F50D
:101FE000E0934E23F0934F2371C0D80140E050E0BE
:101FF000AE17BF0750F412962D913C911397AD0187
:102000002115310509F1D901F3CF9D01DA012283B0
:10201000338360817181860F971F8217930769F45C
:10202000EC0128813981260F371F2E5F3F4F208317
:1020300031838A819B8182839383452B29F4E093AA
:102040005023F093512342C01296ED93FC931397C3
:10205000ED01499159919E01240F351FE217F307B5
:1020600071F480819181840F951F02968D939C93CA
:1020700011978281938112968D939C931397E0E040
:10208000F0E0D80112968D919C911397009719F06A
:10209000F8018C01F6CF8D919C9198012E5F3F4FF6
:1020A000820F931F20914E2330914F232817390719
:1020B00069F4309729F4109250231092512302C0F2
:1020C0001282138200934E2310934F23DF91CF91FE
:1020D0001F910F910895FC0105906150704001100F
:1020E000D8F7809590958E0F9F1F0895DC0101C051
:1020F0006D9341505040E0F70895FC0161507040ED
:1021000001900110D8F7809590958E0F9F1F08952C
:102110000F931F93CF93DF93FB01238121FD03C016
:102120008FEF9FEF28C022FF16C046815781248180
:1021300035814217530744F4A081B1819D012F5F7F
:102140003F4F208331838C93268137812F5F3F4F10
:102150002683378310C0EB01092F182F0084F185E7
:10216000E02D0995892BE1F68E819F8101968E8362
:102170009F83812F902FDF91CF911F910F91089511
:10218000FA01AA27283051F1203181F1E8946F93A8
:102190006E7F6E5F7F4F8F4F9F4FAF4FB1E03ED04E
:1021A000B4E03CD0670F781F891F9A1FA11D680FEC
:1021B000791F8A1F911DA11D6A0F711D811D911D1F
:1021C000A11D20D009F468943F912AE0269F112494
:1021D0003019305D3193DEF6CF010895462F4770F8
:1021E000405D4193B3E00FD0C9F7F6CF462F4F7053
:1021F000405D4A3318F0495D31FD4052419302D0B1
:10220000A9F7EACFB4E0A695979587957795679556
:10221000BA95C9F700976105710508959B01AC0156
:102220000A2E06945795479537952795BA95C9F77D
:10223000620F731F841F951FA01D08952F923F9258
:102240004F925F926F927F928F929F92AF92BF92C6
:10225000CF92DF92EF92FF920F931F93CF93DF9372
:10226000CDB7DEB7CA1BDB0BCDBFDEBF09942A8812
:10227000398848885F846E847D848C849B84AA849A
:10228000B984C884DF80EE80FD800C811B81AA8127
:10229000B981CE0FD11DCDBFDEBFED010895F894F9
:0222A000FFCF6E
:1022A2000000522320000100000000000000000096
:1022B200006810740EF4013C00F41A0000000000E3
:1022C20000000000000000546F62792043687572BC
:1022D2006368696C6C0000313836353520317332F1
:1022E200700000000000004C494F4E00000000004A
:1022F20000000000000000000000000000000000DC
:1023020000000000000000000000000000000000CB
:1023120000000000000000000000000000000000BB
:1023220000000000000000000000000000000000AB
:10233200006810740EF4013C00F41A000000000062
:1023420000000000000000546F627920436875723B
:102352006368696C6C000031383635352031733270
:10236200700000000000004C494F4E0000000000C9
:10237200000000000000000000000000000000005B
:10238200000000000000000000000000000000004B
:10239200000000000000000000000000000000003B
:1023A200000000000000004552524F523A204661A0
:1023B200696C656420746F20766572696679206441
:1023C200617461207772697474656E20746F204E37
:1023D200564D206174206164647265737320307895
:1023E20025303278202830782530327820213D205F
:1023F200307825303278290D0A0045726173696E92
:102402006720616C6C206D656D6F7279206D6170F3
:10241200202E2E2E2000646F6E650D0050726F67A5
:1024220072616D6D696E672064656661756C74209A
:1024320076616C756573202E2E2E20004D656D6FB2
:102442007279204D61703A0D007B20307825303250
:10245200782C20307825303278207D2C20000C0A10
:102462000D2D2D2054434C204261747465727920E5
:10247200436F756C6F6D6220436F756E7465722069
:102482002D2D0D002D2D2056657273696F6E3A2029
:102492002564202D2D0D0A000D0A507265737320DC
:1024A20027642720746F20656E74657220696E2020
:1024B20074657374206D6F64650D000A0D57656C49
:1024C200636F6D6520746F20746865207465737422
:1024D200206D6F64652E2050726573730D00202D80
:1024E200206B65792027712720746F2065786974C5
:1024F2002066726F6D2074657374206D6F64650D54
:1025020000202D206B65792027642720746F2064BA
:10251200756D7020746865204D656D6F7279204D00
:10252200617020636F6E74656E74730D00202D20D0
:102532006B65792027652720746F2065726173654A
:10254200204D656D6F7279204D61700D00202D2038
:102552006B65792027702720746F2070726F677205
:10256200616D2064656661756C74204D656D6F7276
:1025720079204D61700D00202D206B657920277424
:102582002720746F20746F67676C65206F75747095
:1025920075742070696E730D00546F67676C6520E7
:1025A200616C6C206F75747075742070696E730A3B
:0225B2000D001A
:00000001FF
